{
  "_format": "hh-sol-artifact-1",
  "contractName": "BorrowYourCar",
  "sourceName": "contracts/BorrowYourCar.sol",
  "abi": [
    {
      "inputs": [],
      "stateMutability": "nonpayable",
      "type": "constructor"
    },
    {
      "inputs": [
        {
          "internalType": "address",
          "name": "sender",
          "type": "address"
        },
        {
          "internalType": "uint256",
          "name": "tokenId",
          "type": "uint256"
        },
        {
          "internalType": "address",
          "name": "owner",
          "type": "address"
        }
      ],
      "name": "ERC721IncorrectOwner",
      "type": "error"
    },
    {
      "inputs": [
        {
          "internalType": "address",
          "name": "operator",
          "type": "address"
        },
        {
          "internalType": "uint256",
          "name": "tokenId",
          "type": "uint256"
        }
      ],
      "name": "ERC721InsufficientApproval",
      "type": "error"
    },
    {
      "inputs": [
        {
          "internalType": "address",
          "name": "approver",
          "type": "address"
        }
      ],
      "name": "ERC721InvalidApprover",
      "type": "error"
    },
    {
      "inputs": [
        {
          "internalType": "address",
          "name": "operator",
          "type": "address"
        }
      ],
      "name": "ERC721InvalidOperator",
      "type": "error"
    },
    {
      "inputs": [
        {
          "internalType": "address",
          "name": "owner",
          "type": "address"
        }
      ],
      "name": "ERC721InvalidOwner",
      "type": "error"
    },
    {
      "inputs": [
        {
          "internalType": "address",
          "name": "receiver",
          "type": "address"
        }
      ],
      "name": "ERC721InvalidReceiver",
      "type": "error"
    },
    {
      "inputs": [
        {
          "internalType": "address",
          "name": "sender",
          "type": "address"
        }
      ],
      "name": "ERC721InvalidSender",
      "type": "error"
    },
    {
      "inputs": [
        {
          "internalType": "uint256",
          "name": "tokenId",
          "type": "uint256"
        }
      ],
      "name": "ERC721NonexistentToken",
      "type": "error"
    },
    {
      "anonymous": false,
      "inputs": [
        {
          "indexed": true,
          "internalType": "address",
          "name": "owner",
          "type": "address"
        },
        {
          "indexed": true,
          "internalType": "address",
          "name": "approved",
          "type": "address"
        },
        {
          "indexed": true,
          "internalType": "uint256",
          "name": "tokenId",
          "type": "uint256"
        }
      ],
      "name": "Approval",
      "type": "event"
    },
    {
      "anonymous": false,
      "inputs": [
        {
          "indexed": true,
          "internalType": "address",
          "name": "owner",
          "type": "address"
        },
        {
          "indexed": true,
          "internalType": "address",
          "name": "operator",
          "type": "address"
        },
        {
          "indexed": false,
          "internalType": "bool",
          "name": "approved",
          "type": "bool"
        }
      ],
      "name": "ApprovalForAll",
      "type": "event"
    },
    {
      "anonymous": false,
      "inputs": [
        {
          "indexed": false,
          "internalType": "uint256",
          "name": "carTokenId",
          "type": "uint256"
        },
        {
          "indexed": false,
          "internalType": "address",
          "name": "borrower",
          "type": "address"
        },
        {
          "indexed": false,
          "internalType": "uint256",
          "name": "startTime",
          "type": "uint256"
        },
        {
          "indexed": false,
          "internalType": "uint256",
          "name": "duration",
          "type": "uint256"
        }
      ],
      "name": "CarBorrowed",
      "type": "event"
    },
    {
      "anonymous": false,
      "inputs": [
        {
          "indexed": false,
          "internalType": "uint256[]",
          "name": "",
          "type": "uint256[]"
        }
      ],
      "name": "GetAvailableCars",
      "type": "event"
    },
    {
      "anonymous": false,
      "inputs": [
        {
          "indexed": false,
          "internalType": "uint256[]",
          "name": "",
          "type": "uint256[]"
        }
      ],
      "name": "GetMyCarList",
      "type": "event"
    },
    {
      "anonymous": false,
      "inputs": [
        {
          "indexed": false,
          "internalType": "uint256",
          "name": "carTokenId",
          "type": "uint256"
        }
      ],
      "name": "MintCar",
      "type": "event"
    },
    {
      "anonymous": false,
      "inputs": [
        {
          "indexed": true,
          "internalType": "address",
          "name": "from",
          "type": "address"
        },
        {
          "indexed": true,
          "internalType": "address",
          "name": "to",
          "type": "address"
        },
        {
          "indexed": true,
          "internalType": "uint256",
          "name": "tokenId",
          "type": "uint256"
        }
      ],
      "name": "Transfer",
      "type": "event"
    },
    {
      "anonymous": false,
      "inputs": [
        {
          "indexed": true,
          "internalType": "uint256",
          "name": "tokenId",
          "type": "uint256"
        },
        {
          "indexed": true,
          "internalType": "address",
          "name": "user",
          "type": "address"
        },
        {
          "indexed": false,
          "internalType": "uint64",
          "name": "expires",
          "type": "uint64"
        }
      ],
      "name": "UpdateUser",
      "type": "event"
    },
    {
      "inputs": [
        {
          "internalType": "address",
          "name": "to",
          "type": "address"
        },
        {
          "internalType": "uint256",
          "name": "tokenId",
          "type": "uint256"
        }
      ],
      "name": "approve",
      "outputs": [],
      "stateMutability": "nonpayable",
      "type": "function"
    },
    {
      "inputs": [
        {
          "internalType": "address",
          "name": "owner",
          "type": "address"
        }
      ],
      "name": "balanceOf",
      "outputs": [
        {
          "internalType": "uint256",
          "name": "",
          "type": "uint256"
        }
      ],
      "stateMutability": "view",
      "type": "function"
    },
    {
      "inputs": [
        {
          "internalType": "uint256",
          "name": "carId",
          "type": "uint256"
        },
        {
          "internalType": "uint256",
          "name": "hour",
          "type": "uint256"
        }
      ],
      "name": "carBorrowed",
      "outputs": [],
      "stateMutability": "nonpayable",
      "type": "function"
    },
    {
      "inputs": [
        {
          "internalType": "uint256",
          "name": "",
          "type": "uint256"
        }
      ],
      "name": "cars",
      "outputs": [
        {
          "internalType": "address",
          "name": "owner",
          "type": "address"
        },
        {
          "internalType": "address",
          "name": "borrower",
          "type": "address"
        },
        {
          "internalType": "uint256",
          "name": "borrowUntil",
          "type": "uint256"
        }
      ],
      "stateMutability": "view",
      "type": "function"
    },
    {
      "inputs": [
        {
          "internalType": "uint256",
          "name": "tokenId",
          "type": "uint256"
        }
      ],
      "name": "getApproved",
      "outputs": [
        {
          "internalType": "address",
          "name": "",
          "type": "address"
        }
      ],
      "stateMutability": "view",
      "type": "function"
    },
    {
      "inputs": [],
      "name": "getAvailableCars",
      "outputs": [
        {
          "internalType": "uint256[]",
          "name": "availableCars",
          "type": "uint256[]"
        }
      ],
      "stateMutability": "nonpayable",
      "type": "function"
    },
    {
      "inputs": [
        {
          "internalType": "uint256",
          "name": "carId",
          "type": "uint256"
        }
      ],
      "name": "getCarBorrower",
      "outputs": [
        {
          "internalType": "address",
          "name": "borrower",
          "type": "address"
        }
      ],
      "stateMutability": "view",
      "type": "function"
    },
    {
      "inputs": [
        {
          "internalType": "uint256",
          "name": "carId",
          "type": "uint256"
        }
      ],
      "name": "getCarOwner",
      "outputs": [
        {
          "internalType": "address",
          "name": "owner",
          "type": "address"
        }
      ],
      "stateMutability": "view",
      "type": "function"
    },
    {
      "inputs": [],
      "name": "getManager",
      "outputs": [
        {
          "internalType": "address",
          "name": "",
          "type": "address"
        }
      ],
      "stateMutability": "view",
      "type": "function"
    },
    {
      "inputs": [],
      "name": "getMyCarList",
      "outputs": [
        {
          "internalType": "uint256[]",
          "name": "myCarList",
          "type": "uint256[]"
        }
      ],
      "stateMutability": "nonpayable",
      "type": "function"
    },
    {
      "inputs": [],
      "name": "getPerCarCost",
      "outputs": [
        {
          "internalType": "uint256",
          "name": "",
          "type": "uint256"
        }
      ],
      "stateMutability": "view",
      "type": "function"
    },
    {
      "inputs": [],
      "name": "getPerHourCost",
      "outputs": [
        {
          "internalType": "uint256",
          "name": "",
          "type": "uint256"
        }
      ],
      "stateMutability": "view",
      "type": "function"
    },
    {
      "inputs": [
        {
          "internalType": "address",
          "name": "owner",
          "type": "address"
        },
        {
          "internalType": "address",
          "name": "operator",
          "type": "address"
        }
      ],
      "name": "isApprovedForAll",
      "outputs": [
        {
          "internalType": "bool",
          "name": "",
          "type": "bool"
        }
      ],
      "stateMutability": "view",
      "type": "function"
    },
    {
      "inputs": [],
      "name": "manager",
      "outputs": [
        {
          "internalType": "address",
          "name": "",
          "type": "address"
        }
      ],
      "stateMutability": "view",
      "type": "function"
    },
    {
      "inputs": [
        {
          "internalType": "uint256",
          "name": "CarId",
          "type": "uint256"
        },
        {
          "internalType": "address",
          "name": "to",
          "type": "address"
        }
      ],
      "name": "mint",
      "outputs": [],
      "stateMutability": "nonpayable",
      "type": "function"
    },
    {
      "inputs": [],
      "name": "mintCar",
      "outputs": [],
      "stateMutability": "payable",
      "type": "function"
    },
    {
      "inputs": [],
      "name": "myERC20",
      "outputs": [
        {
          "internalType": "contract MyERC20",
          "name": "",
          "type": "address"
        }
      ],
      "stateMutability": "view",
      "type": "function"
    },
    {
      "inputs": [],
      "name": "name",
      "outputs": [
        {
          "internalType": "string",
          "name": "",
          "type": "string"
        }
      ],
      "stateMutability": "view",
      "type": "function"
    },
    {
      "inputs": [],
      "name": "nextCarId",
      "outputs": [
        {
          "internalType": "uint256",
          "name": "",
          "type": "uint256"
        }
      ],
      "stateMutability": "view",
      "type": "function"
    },
    {
      "inputs": [
        {
          "internalType": "address",
          "name": "",
          "type": "address"
        },
        {
          "internalType": "uint256",
          "name": "",
          "type": "uint256"
        }
      ],
      "name": "ownerCarList",
      "outputs": [
        {
          "internalType": "uint256",
          "name": "",
          "type": "uint256"
        }
      ],
      "stateMutability": "view",
      "type": "function"
    },
    {
      "inputs": [
        {
          "internalType": "uint256",
          "name": "tokenId",
          "type": "uint256"
        }
      ],
      "name": "ownerOf",
      "outputs": [
        {
          "internalType": "address",
          "name": "",
          "type": "address"
        }
      ],
      "stateMutability": "view",
      "type": "function"
    },
    {
      "inputs": [],
      "name": "perCarCost",
      "outputs": [
        {
          "internalType": "uint256",
          "name": "",
          "type": "uint256"
        }
      ],
      "stateMutability": "view",
      "type": "function"
    },
    {
      "inputs": [],
      "name": "perHourCost",
      "outputs": [
        {
          "internalType": "uint256",
          "name": "",
          "type": "uint256"
        }
      ],
      "stateMutability": "view",
      "type": "function"
    },
    {
      "inputs": [
        {
          "internalType": "address",
          "name": "from",
          "type": "address"
        },
        {
          "internalType": "address",
          "name": "to",
          "type": "address"
        },
        {
          "internalType": "uint256",
          "name": "tokenId",
          "type": "uint256"
        }
      ],
      "name": "safeTransferFrom",
      "outputs": [],
      "stateMutability": "nonpayable",
      "type": "function"
    },
    {
      "inputs": [
        {
          "internalType": "address",
          "name": "from",
          "type": "address"
        },
        {
          "internalType": "address",
          "name": "to",
          "type": "address"
        },
        {
          "internalType": "uint256",
          "name": "tokenId",
          "type": "uint256"
        },
        {
          "internalType": "bytes",
          "name": "data",
          "type": "bytes"
        }
      ],
      "name": "safeTransferFrom",
      "outputs": [],
      "stateMutability": "nonpayable",
      "type": "function"
    },
    {
      "inputs": [
        {
          "internalType": "address",
          "name": "operator",
          "type": "address"
        },
        {
          "internalType": "bool",
          "name": "approved",
          "type": "bool"
        }
      ],
      "name": "setApprovalForAll",
      "outputs": [],
      "stateMutability": "nonpayable",
      "type": "function"
    },
    {
      "inputs": [
        {
          "internalType": "uint256",
          "name": "tokenId",
          "type": "uint256"
        },
        {
          "internalType": "address",
          "name": "user",
          "type": "address"
        },
        {
          "internalType": "uint64",
          "name": "expires",
          "type": "uint64"
        }
      ],
      "name": "setUser",
      "outputs": [],
      "stateMutability": "nonpayable",
      "type": "function"
    },
    {
      "inputs": [
        {
          "internalType": "bytes4",
          "name": "interfaceId",
          "type": "bytes4"
        }
      ],
      "name": "supportsInterface",
      "outputs": [
        {
          "internalType": "bool",
          "name": "",
          "type": "bool"
        }
      ],
      "stateMutability": "view",
      "type": "function"
    },
    {
      "inputs": [],
      "name": "symbol",
      "outputs": [
        {
          "internalType": "string",
          "name": "",
          "type": "string"
        }
      ],
      "stateMutability": "view",
      "type": "function"
    },
    {
      "inputs": [
        {
          "internalType": "uint256",
          "name": "tokenId",
          "type": "uint256"
        }
      ],
      "name": "tokenURI",
      "outputs": [
        {
          "internalType": "string",
          "name": "",
          "type": "string"
        }
      ],
      "stateMutability": "view",
      "type": "function"
    },
    {
      "inputs": [
        {
          "internalType": "address",
          "name": "from",
          "type": "address"
        },
        {
          "internalType": "address",
          "name": "to",
          "type": "address"
        },
        {
          "internalType": "uint256",
          "name": "tokenId",
          "type": "uint256"
        }
      ],
      "name": "transferFrom",
      "outputs": [],
      "stateMutability": "nonpayable",
      "type": "function"
    },
    {
      "inputs": [
        {
          "internalType": "uint256",
          "name": "tokenId",
          "type": "uint256"
        }
      ],
      "name": "userExpires",
      "outputs": [
        {
          "internalType": "uint256",
          "name": "",
          "type": "uint256"
        }
      ],
      "stateMutability": "view",
      "type": "function"
    },
    {
      "inputs": [
        {
          "internalType": "uint256",
          "name": "tokenId",
          "type": "uint256"
        }
      ],
      "name": "userOf",
      "outputs": [
        {
          "internalType": "address",
          "name": "",
          "type": "address"
        }
      ],
      "stateMutability": "view",
      "type": "function"
    }
  ],
  "bytecode": "0x6080604052600a6007556000600855600a6009553480156200002057600080fd5b506040518060400160405280600781526020017f4f54544f4e4654000000000000000000000000000000000000000000000000008152506040518060400160405280600d81526020017f4f54544f4e465453796d626f6c0000000000000000000000000000000000000081525081818160009081620000a09190620003fd565b508060019081620000b29190620003fd565b5050505050604051620000c59062000175565b620000d09062000595565b604051809103906000f080158015620000ed573d6000803e3d6000fd5b50600d60006101000a81548173ffffffffffffffffffffffffffffffffffffffff021916908373ffffffffffffffffffffffffffffffffffffffff16021790555033600a60006101000a81548173ffffffffffffffffffffffffffffffffffffffff021916908373ffffffffffffffffffffffffffffffffffffffff160217905550620005cc565b6116398062003a7f83390190565b600081519050919050565b7f4e487b7100000000000000000000000000000000000000000000000000000000600052604160045260246000fd5b7f4e487b7100000000000000000000000000000000000000000000000000000000600052602260045260246000fd5b600060028204905060018216806200020557607f821691505b6020821081036200021b576200021a620001bd565b5b50919050565b60008190508160005260206000209050919050565b60006020601f8301049050919050565b600082821b905092915050565b600060088302620002857fffffffffffffffffffffffffffffffffffffffffffffffffffffffffffffffff8262000246565b62000291868362000246565b95508019841693508086168417925050509392505050565b6000819050919050565b6000819050919050565b6000620002de620002d8620002d284620002a9565b620002b3565b620002a9565b9050919050565b6000819050919050565b620002fa83620002bd565b620003126200030982620002e5565b84845462000253565b825550505050565b600090565b620003296200031a565b62000336818484620002ef565b505050565b5b818110156200035e57620003526000826200031f565b6001810190506200033c565b5050565b601f821115620003ad57620003778162000221565b620003828462000236565b8101602085101562000392578190505b620003aa620003a18562000236565b8301826200033b565b50505b505050565b600082821c905092915050565b6000620003d260001984600802620003b2565b1980831691505092915050565b6000620003ed8383620003bf565b9150826002028217905092915050565b620004088262000183565b67ffffffffffffffff8111156200042457620004236200018e565b5b620004308254620001ec565b6200043d82828562000362565b600060209050601f83116001811462000475576000841562000460578287015190505b6200046c8582620003df565b865550620004dc565b601f198416620004858662000221565b60005b82811015620004af5784890151825560018201915060208501945060208101905062000488565b86831015620004cf5784890151620004cb601f891682620003bf565b8355505b6001600288020188555050505b505050505050565b600082825260208201905092915050565b7f4f54544f546f6b656e0000000000000000000000000000000000000000000000600082015250565b60006200052d600983620004e4565b91506200053a82620004f5565b602082019050919050565b7f4f54544f546f6b656e53796d626f6c0000000000000000000000000000000000600082015250565b60006200057d600f83620004e4565b91506200058a8262000545565b602082019050919050565b60006040820190508181036000830152620005b0816200051e565b90508181036020830152620005c5816200056e565b9050919050565b6134a380620005dc6000396000f3fe6080604052600436106101ee5760003560e01c806370a082311161010d578063c3c70591116100a0578063d64966911161006f578063d64966911461071a578063db1506d914610757578063e030565e14610782578063e985e9c5146107ab578063f7746e36146107e8576101ee565b8063c3c705911461064a578063c87b56dd14610687578063cc66b36e146106c4578063d5009584146106ef576101ee565b806395d89b41116100dc57806395d89b4114610590578063a22cb465146105bb578063b88d4fde146105e4578063c2f1f14a1461060d576101ee565b806370a08231146104c25780638c8bfa06146104ff5780638fc88c481461052a57806394bf804d14610567576101ee565b806338301663116101855780634795d1c9116101545780634795d1c914610404578063481c6a751461042f5780636352211e1461045a5780636d3739c414610497576101ee565b8063383016631461037d5780633a7bb4b2146103a657806342842e0e146103b0578063433b8046146103d9576101ee565b8063081812fc116101c1578063081812fc146102b1578063095ea7b3146102ee5780631db8bd441461031757806323b872dd14610354576101ee565b8063018ddf62146101f357806301ffc9a71461021e57806306fdde031461025b578063075b41fd14610286575b600080fd5b3480156101ff57600080fd5b50610208610827565b604051610215919061266f565b60405180910390f35b34801561022a57600080fd5b50610245600480360381019061024091906126f6565b610831565b604051610252919061273e565b60405180910390f35b34801561026757600080fd5b506102706108ab565b60405161027d91906127e9565b60405180910390f35b34801561029257600080fd5b5061029b61093d565b6040516102a8919061266f565b60405180910390f35b3480156102bd57600080fd5b506102d860048036038101906102d39190612837565b610943565b6040516102e591906128a5565b60405180910390f35b3480156102fa57600080fd5b50610315600480360381019061031091906128ec565b61095f565b005b34801561032357600080fd5b5061033e60048036038101906103399190612837565b610975565b60405161034b91906128a5565b60405180910390f35b34801561036057600080fd5b5061037b6004803603810190610376919061292c565b6109cb565b005b34801561038957600080fd5b506103a4600480360381019061039f919061297f565b610acd565b005b6103ae610e1f565b005b3480156103bc57600080fd5b506103d760048036038101906103d2919061292c565b611016565b005b3480156103e557600080fd5b506103ee611036565b6040516103fb9190612a7d565b60405180910390f35b34801561041057600080fd5b50610419611183565b6040516104269190612a7d565b60405180910390f35b34801561043b57600080fd5b5061044461124f565b60405161045191906128a5565b60405180910390f35b34801561046657600080fd5b50610481600480360381019061047c9190612837565b611275565b60405161048e91906128a5565b60405180910390f35b3480156104a357600080fd5b506104ac611287565b6040516104b99190612afe565b60405180910390f35b3480156104ce57600080fd5b506104e960048036038101906104e49190612b19565b6112ad565b6040516104f6919061266f565b60405180910390f35b34801561050b57600080fd5b50610514611367565b604051610521919061266f565b60405180910390f35b34801561053657600080fd5b50610551600480360381019061054c9190612837565b61136d565b60405161055e919061266f565b60405180910390f35b34801561057357600080fd5b5061058e60048036038101906105899190612b46565b6113ab565b005b34801561059c57600080fd5b506105a56113b9565b6040516105b291906127e9565b60405180910390f35b3480156105c757600080fd5b506105e260048036038101906105dd9190612bb2565b61144b565b005b3480156105f057600080fd5b5061060b60048036038101906106069190612d27565b611461565b005b34801561061957600080fd5b50610634600480360381019061062f9190612837565b61147e565b60405161064191906128a5565b60405180910390f35b34801561065657600080fd5b50610671600480360381019061066c9190612837565b611503565b60405161067e91906128a5565b60405180910390f35b34801561069357600080fd5b506106ae60048036038101906106a99190612837565b611587565b6040516106bb91906127e9565b60405180910390f35b3480156106d057600080fd5b506106d96115f0565b6040516106e6919061266f565b60405180910390f35b3480156106fb57600080fd5b506107046115fa565b60405161071191906128a5565b60405180910390f35b34801561072657600080fd5b50610741600480360381019061073c91906128ec565b611624565b60405161074e919061266f565b60405180910390f35b34801561076357600080fd5b5061076c611655565b604051610779919061266f565b60405180910390f35b34801561078e57600080fd5b506107a960048036038101906107a49190612dea565b61165b565b005b3480156107b757600080fd5b506107d260048036038101906107cd9190612e3d565b611735565b6040516107df919061273e565b60405180910390f35b3480156107f457600080fd5b5061080f600480360381019061080a9190612837565b6117c9565b60405161081e93929190612e7d565b60405180910390f35b6000600754905090565b60007fad092b5c000000000000000000000000000000000000000000000000000000007bffffffffffffffffffffffffffffffffffffffffffffffffffffffff1916827bffffffffffffffffffffffffffffffffffffffffffffffffffffffff191614806108a457506108a382611833565b5b9050919050565b6060600080546108ba90612ee3565b80601f01602080910402602001604051908101604052809291908181526020018280546108e690612ee3565b80156109335780601f1061090857610100808354040283529160200191610933565b820191906000526020600020905b81548152906001019060200180831161091657829003601f168201915b5050505050905090565b60075481565b600061094e82611915565b506109588261199d565b9050919050565b610971828261096c6119da565b6119e2565b5050565b600060085482106109bb576040517f08c379a00000000000000000000000000000000000000000000000000000000081526004016109b290612f60565b60405180910390fd5b6109c48261147e565b9050919050565b600073ffffffffffffffffffffffffffffffffffffffff168273ffffffffffffffffffffffffffffffffffffffff1603610a3d5760006040517f64a0ae92000000000000000000000000000000000000000000000000000000008152600401610a3491906128a5565b60405180910390fd5b6000610a518383610a4c6119da565b6119f4565b90508373ffffffffffffffffffffffffffffffffffffffff168173ffffffffffffffffffffffffffffffffffffffff1614610ac7578382826040517f64283d7b000000000000000000000000000000000000000000000000000000008152600401610abe93929190612f80565b60405180910390fd5b50505050565b600060075482610add9190612fe6565b90506008548310610b23576040517f08c379a0000000000000000000000000000000000000000000000000000000008152600401610b1a90612f60565b60405180910390fd5b600b6000848152602001908152602001600020600201544211610b7b576040517f08c379a0000000000000000000000000000000000000000000000000000000008152600401610b7290613074565b60405180910390fd5b600d60009054906101000a900473ffffffffffffffffffffffffffffffffffffffff1673ffffffffffffffffffffffffffffffffffffffff166370a08231336040518263ffffffff1660e01b8152600401610bd691906128a5565b602060405180830381865afa158015610bf3573d6000803e3d6000fd5b505050506040513d601f19601f82011682018060405250810190610c1791906130a9565b811115610c59576040517f08c379a0000000000000000000000000000000000000000000000000000000008152600401610c5090613122565b60405180910390fd5b610c7c8333610e1085610c6c9190612fe6565b42610c779190613142565b61165b565b610e1082610c8a9190612fe6565b42610c959190613142565b600b60008581526020019081526020016000206002018190555033600b600085815260200190815260200160002060010160006101000a81548173ffffffffffffffffffffffffffffffffffffffff021916908373ffffffffffffffffffffffffffffffffffffffff160217905550600d60009054906101000a900473ffffffffffffffffffffffffffffffffffffffff1673ffffffffffffffffffffffffffffffffffffffff166323b872dd33600b600087815260200190815260200160002060000160009054906101000a900473ffffffffffffffffffffffffffffffffffffffff16846040518463ffffffff1660e01b8152600401610d9993929190612e7d565b6020604051808303816000875af1158015610db8573d6000803e3d6000fd5b505050506040513d601f19601f82011682018060405250810190610ddc919061318b565b507f8879d78706834dc00d82232992f71250fab6a1f70b08260968253950083d88cd83334285604051610e1294939291906131b8565b60405180910390a1505050565b600954341015610e64576040517f08c379a0000000000000000000000000000000000000000000000000000000008152600401610e5b90613122565b60405180910390fd5b610e70600854336113ab565b33600b6000600854815260200190815260200160002060000160006101000a81548173ffffffffffffffffffffffffffffffffffffffff021916908373ffffffffffffffffffffffffffffffffffffffff16021790555042600b6000600854815260200190815260200160002060020181905550600c60003373ffffffffffffffffffffffffffffffffffffffff1673ffffffffffffffffffffffffffffffffffffffff168152602001908152602001600020600854908060018154018082558091505060019003906000526020600020016000909190919091505560086000815480929190610f5f906131fd565b9190505550600a60009054906101000a900473ffffffffffffffffffffffffffffffffffffffff1673ffffffffffffffffffffffffffffffffffffffff166108fc6009549081150290604051600060405180830381858888f19350505050158015610fce573d6000803e3d6000fd5b507fce1f40a1acc8d5da4915d8569bc4cb8c210b020e06c0a5153026585c96f75d006001600854610fff9190613245565b60405161100c919061266f565b60405180910390a1565b61103183838360405180602001604052806000815250611461565b505050565b60606000805b60085481101561108657600b60008281526020019081526020016000206002015442111561107357818061106f906131fd565b9250505b808061107e906131fd565b91505061103c565b5060008167ffffffffffffffff8111156110a3576110a2612bfc565b5b6040519080825280602002602001820160405280156110d15781602001602082028036833780820191505090505b5090506000805b60085481101561114257600b60008281526020019081526020016000206002015442111561112f578083838151811061111457611113613279565b5b602002602001018181525050818061112b906131fd565b9250505b808061113a906131fd565b9150506110d8565b507f622b03fd33234b5a4c7b5d3357ea8a2552cb43fdf13a62ff91308bbff704af71826040516111729190612a7d565b60405180910390a181935050505090565b6060600c60003373ffffffffffffffffffffffffffffffffffffffff1673ffffffffffffffffffffffffffffffffffffffff16815260200190815260200160002080548060200260200160405190810160405280929190818152602001828054801561120e57602002820191906000526020600020905b8154815260200190600101908083116111fa575b505050505090507f226c6e3b074540c8a9911056a34c68f0167fd281fd2d828aad764225418f4182816040516112449190612a7d565b60405180910390a190565b600a60009054906101000a900473ffffffffffffffffffffffffffffffffffffffff1681565b600061128082611915565b9050919050565b600d60009054906101000a900473ffffffffffffffffffffffffffffffffffffffff1681565b60008073ffffffffffffffffffffffffffffffffffffffff168273ffffffffffffffffffffffffffffffffffffffff16036113205760006040517f89c62b6400000000000000000000000000000000000000000000000000000000815260040161131791906128a5565b60405180910390fd5b600360008373ffffffffffffffffffffffffffffffffffffffff1673ffffffffffffffffffffffffffffffffffffffff168152602001908152602001600020549050919050565b60085481565b60006006600083815260200190815260200160002060000160149054906101000a900467ffffffffffffffff1667ffffffffffffffff169050919050565b6113b58183611c0e565b5050565b6060600180546113c890612ee3565b80601f01602080910402602001604051908101604052809291908181526020018280546113f490612ee3565b80156114415780601f1061141657610100808354040283529160200191611441565b820191906000526020600020905b81548152906001019060200180831161142457829003601f168201915b5050505050905090565b61145d6114566119da565b8383611d07565b5050565b61146c8484846109cb565b61147884848484611e76565b50505050565b6000426006600084815260200190815260200160002060000160149054906101000a900467ffffffffffffffff1667ffffffffffffffff16106114f9576006600083815260200190815260200160002060000160009054906101000a900473ffffffffffffffffffffffffffffffffffffffff1690506114fe565b600090505b919050565b60006008548210611549576040517f08c379a000000000000000000000000000000000000000000000000000000000815260040161154090612f60565b60405180910390fd5b600b600083815260200190815260200160002060000160009054906101000a900473ffffffffffffffffffffffffffffffffffffffff169050919050565b606061159282611915565b50600061159d61202d565b905060008151116115bd57604051806020016040528060008152506115e8565b806115c784612044565b6040516020016115d89291906132e4565b6040516020818303038152906040525b915050919050565b6000600954905090565b6000600a60009054906101000a900473ffffffffffffffffffffffffffffffffffffffff16905090565b600c602052816000526040600020818154811061164057600080fd5b90600052602060002001600091509150505481565b60095481565b6000600660008581526020019081526020016000209050828160000160006101000a81548173ffffffffffffffffffffffffffffffffffffffff021916908373ffffffffffffffffffffffffffffffffffffffff160217905550818160000160146101000a81548167ffffffffffffffff021916908367ffffffffffffffff1602179055508273ffffffffffffffffffffffffffffffffffffffff16847f4e06b4e7000e659094299b3533b47b6aa8ad048e95e872d23d1f4ee55af89cfe846040516117279190613317565b60405180910390a350505050565b6000600560008473ffffffffffffffffffffffffffffffffffffffff1673ffffffffffffffffffffffffffffffffffffffff16815260200190815260200160002060008373ffffffffffffffffffffffffffffffffffffffff1673ffffffffffffffffffffffffffffffffffffffff16815260200190815260200160002060009054906101000a900460ff16905092915050565b600b6020528060005260406000206000915090508060000160009054906101000a900473ffffffffffffffffffffffffffffffffffffffff16908060010160009054906101000a900473ffffffffffffffffffffffffffffffffffffffff16908060020154905083565b60007f80ac58cd000000000000000000000000000000000000000000000000000000007bffffffffffffffffffffffffffffffffffffffffffffffffffffffff1916827bffffffffffffffffffffffffffffffffffffffffffffffffffffffff191614806118fe57507f5b5e139f000000000000000000000000000000000000000000000000000000007bffffffffffffffffffffffffffffffffffffffffffffffffffffffff1916827bffffffffffffffffffffffffffffffffffffffffffffffffffffffff1916145b8061190e575061190d82612112565b5b9050919050565b6000806119218361217c565b9050600073ffffffffffffffffffffffffffffffffffffffff168173ffffffffffffffffffffffffffffffffffffffff160361199457826040517f7e27328900000000000000000000000000000000000000000000000000000000815260040161198b919061266f565b60405180910390fd5b80915050919050565b60006004600083815260200190815260200160002060009054906101000a900473ffffffffffffffffffffffffffffffffffffffff169050919050565b600033905090565b6119ef83838360016121b9565b505050565b600080611a008461217c565b9050600073ffffffffffffffffffffffffffffffffffffffff168373ffffffffffffffffffffffffffffffffffffffff1614611a4257611a4181848661237e565b5b600073ffffffffffffffffffffffffffffffffffffffff168173ffffffffffffffffffffffffffffffffffffffff1614611ad357611a846000856000806121b9565b6001600360008373ffffffffffffffffffffffffffffffffffffffff1673ffffffffffffffffffffffffffffffffffffffff168152602001908152602001600020600082825403925050819055505b600073ffffffffffffffffffffffffffffffffffffffff168573ffffffffffffffffffffffffffffffffffffffff1614611b56576001600360008773ffffffffffffffffffffffffffffffffffffffff1673ffffffffffffffffffffffffffffffffffffffff168152602001908152602001600020600082825401925050819055505b846002600086815260200190815260200160002060006101000a81548173ffffffffffffffffffffffffffffffffffffffff021916908373ffffffffffffffffffffffffffffffffffffffff160217905550838573ffffffffffffffffffffffffffffffffffffffff168273ffffffffffffffffffffffffffffffffffffffff167fddf252ad1be2c89b69c2b068fc378daa952ba7f163c4a11628f55a4df523b3ef60405160405180910390a4809150509392505050565b600073ffffffffffffffffffffffffffffffffffffffff168273ffffffffffffffffffffffffffffffffffffffff1603611c805760006040517f64a0ae92000000000000000000000000000000000000000000000000000000008152600401611c7791906128a5565b60405180910390fd5b6000611c8e838360006119f4565b9050600073ffffffffffffffffffffffffffffffffffffffff168173ffffffffffffffffffffffffffffffffffffffff1614611d025760006040517f73c6ac6e000000000000000000000000000000000000000000000000000000008152600401611cf991906128a5565b60405180910390fd5b505050565b600073ffffffffffffffffffffffffffffffffffffffff168273ffffffffffffffffffffffffffffffffffffffff1603611d7857816040517f5b08ba18000000000000000000000000000000000000000000000000000000008152600401611d6f91906128a5565b60405180910390fd5b80600560008573ffffffffffffffffffffffffffffffffffffffff1673ffffffffffffffffffffffffffffffffffffffff16815260200190815260200160002060008473ffffffffffffffffffffffffffffffffffffffff1673ffffffffffffffffffffffffffffffffffffffff16815260200190815260200160002060006101000a81548160ff0219169083151502179055508173ffffffffffffffffffffffffffffffffffffffff168373ffffffffffffffffffffffffffffffffffffffff167f17307eab39ab6107e8899845ad3d59bd9653f200f220920489ca2b5937696c3183604051611e69919061273e565b60405180910390a3505050565b60008373ffffffffffffffffffffffffffffffffffffffff163b1115612027578273ffffffffffffffffffffffffffffffffffffffff1663150b7a02611eba6119da565b8685856040518563ffffffff1660e01b8152600401611edc9493929190613387565b6020604051808303816000875af1925050508015611f1857506040513d601f19601f82011682018060405250810190611f1591906133e8565b60015b611f9c573d8060008114611f48576040519150601f19603f3d011682016040523d82523d6000602084013e611f4d565b606091505b506000815103611f9457836040517f64a0ae92000000000000000000000000000000000000000000000000000000008152600401611f8b91906128a5565b60405180910390fd5b805181602001fd5b63150b7a0260e01b7bffffffffffffffffffffffffffffffffffffffffffffffffffffffff1916817bffffffffffffffffffffffffffffffffffffffffffffffffffffffff19161461202557836040517f64a0ae9200000000000000000000000000000000000000000000000000000000815260040161201c91906128a5565b60405180910390fd5b505b50505050565b606060405180602001604052806000815250905090565b60606000600161205384612442565b01905060008167ffffffffffffffff81111561207257612071612bfc565b5b6040519080825280601f01601f1916602001820160405280156120a45781602001600182028036833780820191505090505b509050600082602001820190505b600115612107578080600190039150507f3031323334353637383961626364656600000000000000000000000000000000600a86061a8153600a85816120fb576120fa613415565b5b049450600085036120b2575b819350505050919050565b60007f01ffc9a7000000000000000000000000000000000000000000000000000000007bffffffffffffffffffffffffffffffffffffffffffffffffffffffff1916827bffffffffffffffffffffffffffffffffffffffffffffffffffffffff1916149050919050565b60006002600083815260200190815260200160002060009054906101000a900473ffffffffffffffffffffffffffffffffffffffff169050919050565b80806121f25750600073ffffffffffffffffffffffffffffffffffffffff168273ffffffffffffffffffffffffffffffffffffffff1614155b1561232657600061220284611915565b9050600073ffffffffffffffffffffffffffffffffffffffff168373ffffffffffffffffffffffffffffffffffffffff161415801561226d57508273ffffffffffffffffffffffffffffffffffffffff168173ffffffffffffffffffffffffffffffffffffffff1614155b8015612280575061227e8184611735565b155b156122c257826040517fa9fbf51f0000000000000000000000000000000000000000000000000000000081526004016122b991906128a5565b60405180910390fd5b811561232457838573ffffffffffffffffffffffffffffffffffffffff168273ffffffffffffffffffffffffffffffffffffffff167f8c5be1e5ebec7d5bd14f71427d1e84f3dd0314c0f7b2291e5b200ac8c7c3b92560405160405180910390a45b505b836004600085815260200190815260200160002060006101000a81548173ffffffffffffffffffffffffffffffffffffffff021916908373ffffffffffffffffffffffffffffffffffffffff16021790555050505050565b612389838383612595565b61243d57600073ffffffffffffffffffffffffffffffffffffffff168373ffffffffffffffffffffffffffffffffffffffff16036123fe57806040517f7e2732890000000000000000000000000000000000000000000000000000000081526004016123f5919061266f565b60405180910390fd5b81816040517f177e802f000000000000000000000000000000000000000000000000000000008152600401612434929190613444565b60405180910390fd5b505050565b600080600090507a184f03e93ff9f4daa797ed6e38ed64bf6a1f01000000000000000083106124a0577a184f03e93ff9f4daa797ed6e38ed64bf6a1f010000000000000000838161249657612495613415565b5b0492506040810190505b6d04ee2d6d415b85acef810000000083106124dd576d04ee2d6d415b85acef810000000083816124d3576124d2613415565b5b0492506020810190505b662386f26fc10000831061250c57662386f26fc10000838161250257612501613415565b5b0492506010810190505b6305f5e1008310612535576305f5e100838161252b5761252a613415565b5b0492506008810190505b612710831061255a5761271083816125505761254f613415565b5b0492506004810190505b6064831061257d576064838161257357612572613415565b5b0492506002810190505b600a831061258c576001810190505b80915050919050565b60008073ffffffffffffffffffffffffffffffffffffffff168373ffffffffffffffffffffffffffffffffffffffff161415801561264d57508273ffffffffffffffffffffffffffffffffffffffff168473ffffffffffffffffffffffffffffffffffffffff16148061260e575061260d8484611735565b5b8061264c57508273ffffffffffffffffffffffffffffffffffffffff166126348361199d565b73ffffffffffffffffffffffffffffffffffffffff16145b5b90509392505050565b6000819050919050565b61266981612656565b82525050565b60006020820190506126846000830184612660565b92915050565b6000604051905090565b600080fd5b600080fd5b60007fffffffff0000000000000000000000000000000000000000000000000000000082169050919050565b6126d38161269e565b81146126de57600080fd5b50565b6000813590506126f0816126ca565b92915050565b60006020828403121561270c5761270b612694565b5b600061271a848285016126e1565b91505092915050565b60008115159050919050565b61273881612723565b82525050565b6000602082019050612753600083018461272f565b92915050565b600081519050919050565b600082825260208201905092915050565b60005b83811015612793578082015181840152602081019050612778565b60008484015250505050565b6000601f19601f8301169050919050565b60006127bb82612759565b6127c58185612764565b93506127d5818560208601612775565b6127de8161279f565b840191505092915050565b6000602082019050818103600083015261280381846127b0565b905092915050565b61281481612656565b811461281f57600080fd5b50565b6000813590506128318161280b565b92915050565b60006020828403121561284d5761284c612694565b5b600061285b84828501612822565b91505092915050565b600073ffffffffffffffffffffffffffffffffffffffff82169050919050565b600061288f82612864565b9050919050565b61289f81612884565b82525050565b60006020820190506128ba6000830184612896565b92915050565b6128c981612884565b81146128d457600080fd5b50565b6000813590506128e6816128c0565b92915050565b6000806040838503121561290357612902612694565b5b6000612911858286016128d7565b925050602061292285828601612822565b9150509250929050565b60008060006060848603121561294557612944612694565b5b6000612953868287016128d7565b9350506020612964868287016128d7565b925050604061297586828701612822565b9150509250925092565b6000806040838503121561299657612995612694565b5b60006129a485828601612822565b92505060206129b585828601612822565b9150509250929050565b600081519050919050565b600082825260208201905092915050565b6000819050602082019050919050565b6129f481612656565b82525050565b6000612a0683836129eb565b60208301905092915050565b6000602082019050919050565b6000612a2a826129bf565b612a3481856129ca565b9350612a3f836129db565b8060005b83811015612a70578151612a5788826129fa565b9750612a6283612a12565b925050600181019050612a43565b5085935050505092915050565b60006020820190508181036000830152612a978184612a1f565b905092915050565b6000819050919050565b6000612ac4612abf612aba84612864565b612a9f565b612864565b9050919050565b6000612ad682612aa9565b9050919050565b6000612ae882612acb565b9050919050565b612af881612add565b82525050565b6000602082019050612b136000830184612aef565b92915050565b600060208284031215612b2f57612b2e612694565b5b6000612b3d848285016128d7565b91505092915050565b60008060408385031215612b5d57612b5c612694565b5b6000612b6b85828601612822565b9250506020612b7c858286016128d7565b9150509250929050565b612b8f81612723565b8114612b9a57600080fd5b50565b600081359050612bac81612b86565b92915050565b60008060408385031215612bc957612bc8612694565b5b6000612bd7858286016128d7565b9250506020612be885828601612b9d565b9150509250929050565b600080fd5b600080fd5b7f4e487b7100000000000000000000000000000000000000000000000000000000600052604160045260246000fd5b612c348261279f565b810181811067ffffffffffffffff82111715612c5357612c52612bfc565b5b80604052505050565b6000612c6661268a565b9050612c728282612c2b565b919050565b600067ffffffffffffffff821115612c9257612c91612bfc565b5b612c9b8261279f565b9050602081019050919050565b82818337600083830152505050565b6000612cca612cc584612c77565b612c5c565b905082815260208101848484011115612ce657612ce5612bf7565b5b612cf1848285612ca8565b509392505050565b600082601f830112612d0e57612d0d612bf2565b5b8135612d1e848260208601612cb7565b91505092915050565b60008060008060808587031215612d4157612d40612694565b5b6000612d4f878288016128d7565b9450506020612d60878288016128d7565b9350506040612d7187828801612822565b925050606085013567ffffffffffffffff811115612d9257612d91612699565b5b612d9e87828801612cf9565b91505092959194509250565b600067ffffffffffffffff82169050919050565b612dc781612daa565b8114612dd257600080fd5b50565b600081359050612de481612dbe565b92915050565b600080600060608486031215612e0357612e02612694565b5b6000612e1186828701612822565b9350506020612e22868287016128d7565b9250506040612e3386828701612dd5565b9150509250925092565b60008060408385031215612e5457612e53612694565b5b6000612e62858286016128d7565b9250506020612e73858286016128d7565b9150509250929050565b6000606082019050612e926000830186612896565b612e9f6020830185612896565b612eac6040830184612660565b949350505050565b7f4e487b7100000000000000000000000000000000000000000000000000000000600052602260045260246000fd5b60006002820490506001821680612efb57607f821691505b602082108103612f0e57612f0d612eb4565b5b50919050565b7f4e6f207375636820636172210000000000000000000000000000000000000000600082015250565b6000612f4a600c83612764565b9150612f5582612f14565b602082019050919050565b60006020820190508181036000830152612f7981612f3d565b9050919050565b6000606082019050612f956000830186612896565b612fa26020830185612660565b612faf6040830184612896565b949350505050565b7f4e487b7100000000000000000000000000000000000000000000000000000000600052601160045260246000fd5b6000612ff182612656565b9150612ffc83612656565b925082820261300a81612656565b9150828204841483151761302157613020612fb7565b5b5092915050565b7f4e6f7420617661696c61626c6500000000000000000000000000000000000000600082015250565b600061305e600d83612764565b915061306982613028565b602082019050919050565b6000602082019050818103600083015261308d81613051565b9050919050565b6000815190506130a38161280b565b92915050565b6000602082840312156130bf576130be612694565b5b60006130cd84828501613094565b91505092915050565b7f6c61636b206f662066756e647300000000000000000000000000000000000000600082015250565b600061310c600d83612764565b9150613117826130d6565b602082019050919050565b6000602082019050818103600083015261313b816130ff565b9050919050565b600061314d82612656565b915061315883612656565b92508282019050808211156131705761316f612fb7565b5b92915050565b60008151905061318581612b86565b92915050565b6000602082840312156131a1576131a0612694565b5b60006131af84828501613176565b91505092915050565b60006080820190506131cd6000830187612660565b6131da6020830186612896565b6131e76040830185612660565b6131f46060830184612660565b95945050505050565b600061320882612656565b91507fffffffffffffffffffffffffffffffffffffffffffffffffffffffffffffffff820361323a57613239612fb7565b5b600182019050919050565b600061325082612656565b915061325b83612656565b925082820390508181111561327357613272612fb7565b5b92915050565b7f4e487b7100000000000000000000000000000000000000000000000000000000600052603260045260246000fd5b600081905092915050565b60006132be82612759565b6132c881856132a8565b93506132d8818560208601612775565b80840191505092915050565b60006132f082856132b3565b91506132fc82846132b3565b91508190509392505050565b61331181612daa565b82525050565b600060208201905061332c6000830184613308565b92915050565b600081519050919050565b600082825260208201905092915050565b600061335982613332565b613363818561333d565b9350613373818560208601612775565b61337c8161279f565b840191505092915050565b600060808201905061339c6000830187612896565b6133a96020830186612896565b6133b66040830185612660565b81810360608301526133c8818461334e565b905095945050505050565b6000815190506133e2816126ca565b92915050565b6000602082840312156133fe576133fd612694565b5b600061340c848285016133d3565b91505092915050565b7f4e487b7100000000000000000000000000000000000000000000000000000000600052601260045260246000fd5b60006040820190506134596000830185612896565b6134666020830184612660565b939250505056fea2646970667358221220d5054827b9a42dd33a6e220889cf1870e412e2519ebda25fc58bf128c312e7f564736f6c6343000814003360806040523480156200001157600080fd5b5060405162001639380380620016398339818101604052810190620000379190620001fa565b818181600390816200004a9190620004ca565b5080600490816200005c9190620004ca565b5050505050620005b1565b6000604051905090565b600080fd5b600080fd5b600080fd5b600080fd5b6000601f19601f8301169050919050565b7f4e487b7100000000000000000000000000000000000000000000000000000000600052604160045260246000fd5b620000d08262000085565b810181811067ffffffffffffffff82111715620000f257620000f162000096565b5b80604052505050565b60006200010762000067565b9050620001158282620000c5565b919050565b600067ffffffffffffffff82111562000138576200013762000096565b5b620001438262000085565b9050602081019050919050565b60005b838110156200017057808201518184015260208101905062000153565b60008484015250505050565b6000620001936200018d846200011a565b620000fb565b905082815260208101848484011115620001b257620001b162000080565b5b620001bf84828562000150565b509392505050565b600082601f830112620001df57620001de6200007b565b5b8151620001f18482602086016200017c565b91505092915050565b6000806040838503121562000214576200021362000071565b5b600083015167ffffffffffffffff81111562000235576200023462000076565b5b6200024385828601620001c7565b925050602083015167ffffffffffffffff81111562000267576200026662000076565b5b6200027585828601620001c7565b9150509250929050565b600081519050919050565b7f4e487b7100000000000000000000000000000000000000000000000000000000600052602260045260246000fd5b60006002820490506001821680620002d257607f821691505b602082108103620002e857620002e76200028a565b5b50919050565b60008190508160005260206000209050919050565b60006020601f8301049050919050565b600082821b905092915050565b600060088302620003527fffffffffffffffffffffffffffffffffffffffffffffffffffffffffffffffff8262000313565b6200035e868362000313565b95508019841693508086168417925050509392505050565b6000819050919050565b6000819050919050565b6000620003ab620003a56200039f8462000376565b62000380565b62000376565b9050919050565b6000819050919050565b620003c7836200038a565b620003df620003d682620003b2565b84845462000320565b825550505050565b600090565b620003f6620003e7565b62000403818484620003bc565b505050565b5b818110156200042b576200041f600082620003ec565b60018101905062000409565b5050565b601f8211156200047a576200044481620002ee565b6200044f8462000303565b810160208510156200045f578190505b620004776200046e8562000303565b83018262000408565b50505b505050565b600082821c905092915050565b60006200049f600019846008026200047f565b1980831691505092915050565b6000620004ba83836200048c565b9150826002028217905092915050565b620004d5826200027f565b67ffffffffffffffff811115620004f157620004f062000096565b5b620004fd8254620002b9565b6200050a8282856200042f565b600060209050601f8311600181146200054257600084156200052d578287015190505b620005398582620004ac565b865550620005a9565b601f1984166200055286620002ee565b60005b828110156200057c5784890151825560018201915060208501945060208101905062000555565b868310156200059c578489015162000598601f8916826200048c565b8355505b6001600288020188555050505b505050505050565b61107880620005c16000396000f3fe608060405234801561001057600080fd5b506004361061009e5760003560e01c80633884d635116100665780633884d6351461015d57806370a082311461016757806395d89b4114610197578063a9059cbb146101b5578063dd62ed3e146101e55761009e565b806306fdde03146100a3578063095ea7b3146100c157806318160ddd146100f157806323b872dd1461010f578063313ce5671461013f575b600080fd5b6100ab610215565b6040516100b89190610c3a565b60405180910390f35b6100db60048036038101906100d69190610cf5565b6102a7565b6040516100e89190610d50565b60405180910390f35b6100f96102ca565b6040516101069190610d7a565b60405180910390f35b61012960048036038101906101249190610d95565b6102d4565b6040516101369190610d50565b60405180910390f35b610147610303565b6040516101549190610e04565b60405180910390f35b61016561030c565b005b610181600480360381019061017c9190610e1f565b610406565b60405161018e9190610d7a565b60405180910390f35b61019f61044e565b6040516101ac9190610c3a565b60405180910390f35b6101cf60048036038101906101ca9190610cf5565b6104e0565b6040516101dc9190610d50565b60405180910390f35b6101ff60048036038101906101fa9190610e4c565b610503565b60405161020c9190610d7a565b60405180910390f35b60606003805461022490610ebb565b80601f016020809104026020016040519081016040528092919081815260200182805461025090610ebb565b801561029d5780601f106102725761010080835404028352916020019161029d565b820191906000526020600020905b81548152906001019060200180831161028057829003601f168201915b5050505050905090565b6000806102b261058a565b90506102bf818585610592565b600191505092915050565b6000600254905090565b6000806102df61058a565b90506102ec8582856105a4565b6102f7858585610638565b60019150509392505050565b60006012905090565b60001515600560003373ffffffffffffffffffffffffffffffffffffffff1673ffffffffffffffffffffffffffffffffffffffff16815260200190815260200160002060009054906101000a900460ff1615151461039f576040517f08c379a000000000000000000000000000000000000000000000000000000000815260040161039690610f5e565b60405180910390fd5b6103ac33620f424061072c565b6001600560003373ffffffffffffffffffffffffffffffffffffffff1673ffffffffffffffffffffffffffffffffffffffff16815260200190815260200160002060006101000a81548160ff021916908315150217905550565b60008060008373ffffffffffffffffffffffffffffffffffffffff1673ffffffffffffffffffffffffffffffffffffffff168152602001908152602001600020549050919050565b60606004805461045d90610ebb565b80601f016020809104026020016040519081016040528092919081815260200182805461048990610ebb565b80156104d65780601f106104ab576101008083540402835291602001916104d6565b820191906000526020600020905b8154815290600101906020018083116104b957829003601f168201915b5050505050905090565b6000806104eb61058a565b90506104f8818585610638565b600191505092915050565b6000600160008473ffffffffffffffffffffffffffffffffffffffff1673ffffffffffffffffffffffffffffffffffffffff16815260200190815260200160002060008373ffffffffffffffffffffffffffffffffffffffff1673ffffffffffffffffffffffffffffffffffffffff16815260200190815260200160002054905092915050565b600033905090565b61059f83838360016107ae565b505050565b60006105b08484610503565b90507fffffffffffffffffffffffffffffffffffffffffffffffffffffffffffffffff81146106325781811015610622578281836040517ffb8f41b200000000000000000000000000000000000000000000000000000000815260040161061993929190610f8d565b60405180910390fd5b610631848484840360006107ae565b5b50505050565b600073ffffffffffffffffffffffffffffffffffffffff168373ffffffffffffffffffffffffffffffffffffffff16036106aa5760006040517f96c6fd1e0000000000000000000000000000000000000000000000000000000081526004016106a19190610fc4565b60405180910390fd5b600073ffffffffffffffffffffffffffffffffffffffff168273ffffffffffffffffffffffffffffffffffffffff160361071c5760006040517fec442f050000000000000000000000000000000000000000000000000000000081526004016107139190610fc4565b60405180910390fd5b610727838383610985565b505050565b600073ffffffffffffffffffffffffffffffffffffffff168273ffffffffffffffffffffffffffffffffffffffff160361079e5760006040517fec442f050000000000000000000000000000000000000000000000000000000081526004016107959190610fc4565b60405180910390fd5b6107aa60008383610985565b5050565b600073ffffffffffffffffffffffffffffffffffffffff168473ffffffffffffffffffffffffffffffffffffffff16036108205760006040517fe602df050000000000000000000000000000000000000000000000000000000081526004016108179190610fc4565b60405180910390fd5b600073ffffffffffffffffffffffffffffffffffffffff168373ffffffffffffffffffffffffffffffffffffffff16036108925760006040517f94280d620000000000000000000000000000000000000000000000000000000081526004016108899190610fc4565b60405180910390fd5b81600160008673ffffffffffffffffffffffffffffffffffffffff1673ffffffffffffffffffffffffffffffffffffffff16815260200190815260200160002060008573ffffffffffffffffffffffffffffffffffffffff1673ffffffffffffffffffffffffffffffffffffffff16815260200190815260200160002081905550801561097f578273ffffffffffffffffffffffffffffffffffffffff168473ffffffffffffffffffffffffffffffffffffffff167f8c5be1e5ebec7d5bd14f71427d1e84f3dd0314c0f7b2291e5b200ac8c7c3b925846040516109769190610d7a565b60405180910390a35b50505050565b600073ffffffffffffffffffffffffffffffffffffffff168373ffffffffffffffffffffffffffffffffffffffff16036109d75780600260008282546109cb919061100e565b92505081905550610aaa565b60008060008573ffffffffffffffffffffffffffffffffffffffff1673ffffffffffffffffffffffffffffffffffffffff16815260200190815260200160002054905081811015610a63578381836040517fe450d38c000000000000000000000000000000000000000000000000000000008152600401610a5a93929190610f8d565b60405180910390fd5b8181036000808673ffffffffffffffffffffffffffffffffffffffff1673ffffffffffffffffffffffffffffffffffffffff16815260200190815260200160002081905550505b600073ffffffffffffffffffffffffffffffffffffffff168273ffffffffffffffffffffffffffffffffffffffff1603610af35780600260008282540392505081905550610b40565b806000808473ffffffffffffffffffffffffffffffffffffffff1673ffffffffffffffffffffffffffffffffffffffff168152602001908152602001600020600082825401925050819055505b8173ffffffffffffffffffffffffffffffffffffffff168373ffffffffffffffffffffffffffffffffffffffff167fddf252ad1be2c89b69c2b068fc378daa952ba7f163c4a11628f55a4df523b3ef83604051610b9d9190610d7a565b60405180910390a3505050565b600081519050919050565b600082825260208201905092915050565b60005b83811015610be4578082015181840152602081019050610bc9565b60008484015250505050565b6000601f19601f8301169050919050565b6000610c0c82610baa565b610c168185610bb5565b9350610c26818560208601610bc6565b610c2f81610bf0565b840191505092915050565b60006020820190508181036000830152610c548184610c01565b905092915050565b600080fd5b600073ffffffffffffffffffffffffffffffffffffffff82169050919050565b6000610c8c82610c61565b9050919050565b610c9c81610c81565b8114610ca757600080fd5b50565b600081359050610cb981610c93565b92915050565b6000819050919050565b610cd281610cbf565b8114610cdd57600080fd5b50565b600081359050610cef81610cc9565b92915050565b60008060408385031215610d0c57610d0b610c5c565b5b6000610d1a85828601610caa565b9250506020610d2b85828601610ce0565b9150509250929050565b60008115159050919050565b610d4a81610d35565b82525050565b6000602082019050610d656000830184610d41565b92915050565b610d7481610cbf565b82525050565b6000602082019050610d8f6000830184610d6b565b92915050565b600080600060608486031215610dae57610dad610c5c565b5b6000610dbc86828701610caa565b9350506020610dcd86828701610caa565b9250506040610dde86828701610ce0565b9150509250925092565b600060ff82169050919050565b610dfe81610de8565b82525050565b6000602082019050610e196000830184610df5565b92915050565b600060208284031215610e3557610e34610c5c565b5b6000610e4384828501610caa565b91505092915050565b60008060408385031215610e6357610e62610c5c565b5b6000610e7185828601610caa565b9250506020610e8285828601610caa565b9150509250929050565b7f4e487b7100000000000000000000000000000000000000000000000000000000600052602260045260246000fd5b60006002820490506001821680610ed357607f821691505b602082108103610ee657610ee5610e8c565b5b50919050565b7f5468697320757365722068617320636c61696d65642061697264726f7020616c60008201527f7265616479000000000000000000000000000000000000000000000000000000602082015250565b6000610f48602583610bb5565b9150610f5382610eec565b604082019050919050565b60006020820190508181036000830152610f7781610f3b565b9050919050565b610f8781610c81565b82525050565b6000606082019050610fa26000830186610f7e565b610faf6020830185610d6b565b610fbc6040830184610d6b565b949350505050565b6000602082019050610fd96000830184610f7e565b92915050565b7f4e487b7100000000000000000000000000000000000000000000000000000000600052601160045260246000fd5b600061101982610cbf565b915061102483610cbf565b925082820190508082111561103c5761103b610fdf565b5b9291505056fea2646970667358221220ddd7db9e3c4f645c943083e970e4c938697b6f4fddba1dc9ab426ea39b85650f64736f6c63430008140033",
  "linkReferences": {},
  "deployedLinkReferences": {}
}