{
  "_format": "hh-sol-artifact-1",
  "contractName": "BorrowYourCar",
  "sourceName": "contracts/BorrowYourCar.sol",
  "abi": [
    {
      "inputs": [],
      "stateMutability": "nonpayable",
      "type": "constructor"
    },
    {
      "inputs": [
        {
          "internalType": "address",
          "name": "sender",
          "type": "address"
        },
        {
          "internalType": "uint256",
          "name": "tokenId",
          "type": "uint256"
        },
        {
          "internalType": "address",
          "name": "owner",
          "type": "address"
        }
      ],
      "name": "ERC721IncorrectOwner",
      "type": "error"
    },
    {
      "inputs": [
        {
          "internalType": "address",
          "name": "operator",
          "type": "address"
        },
        {
          "internalType": "uint256",
          "name": "tokenId",
          "type": "uint256"
        }
      ],
      "name": "ERC721InsufficientApproval",
      "type": "error"
    },
    {
      "inputs": [
        {
          "internalType": "address",
          "name": "approver",
          "type": "address"
        }
      ],
      "name": "ERC721InvalidApprover",
      "type": "error"
    },
    {
      "inputs": [
        {
          "internalType": "address",
          "name": "operator",
          "type": "address"
        }
      ],
      "name": "ERC721InvalidOperator",
      "type": "error"
    },
    {
      "inputs": [
        {
          "internalType": "address",
          "name": "owner",
          "type": "address"
        }
      ],
      "name": "ERC721InvalidOwner",
      "type": "error"
    },
    {
      "inputs": [
        {
          "internalType": "address",
          "name": "receiver",
          "type": "address"
        }
      ],
      "name": "ERC721InvalidReceiver",
      "type": "error"
    },
    {
      "inputs": [
        {
          "internalType": "address",
          "name": "sender",
          "type": "address"
        }
      ],
      "name": "ERC721InvalidSender",
      "type": "error"
    },
    {
      "inputs": [
        {
          "internalType": "uint256",
          "name": "tokenId",
          "type": "uint256"
        }
      ],
      "name": "ERC721NonexistentToken",
      "type": "error"
    },
    {
      "anonymous": false,
      "inputs": [
        {
          "indexed": true,
          "internalType": "address",
          "name": "owner",
          "type": "address"
        },
        {
          "indexed": true,
          "internalType": "address",
          "name": "approved",
          "type": "address"
        },
        {
          "indexed": true,
          "internalType": "uint256",
          "name": "tokenId",
          "type": "uint256"
        }
      ],
      "name": "Approval",
      "type": "event"
    },
    {
      "anonymous": false,
      "inputs": [
        {
          "indexed": true,
          "internalType": "address",
          "name": "owner",
          "type": "address"
        },
        {
          "indexed": true,
          "internalType": "address",
          "name": "operator",
          "type": "address"
        },
        {
          "indexed": false,
          "internalType": "bool",
          "name": "approved",
          "type": "bool"
        }
      ],
      "name": "ApprovalForAll",
      "type": "event"
    },
    {
      "anonymous": false,
      "inputs": [
        {
          "indexed": false,
          "internalType": "uint256",
          "name": "carTokenId",
          "type": "uint256"
        },
        {
          "indexed": false,
          "internalType": "address",
          "name": "borrower",
          "type": "address"
        },
        {
          "indexed": false,
          "internalType": "uint256",
          "name": "startTime",
          "type": "uint256"
        },
        {
          "indexed": false,
          "internalType": "uint256",
          "name": "duration",
          "type": "uint256"
        }
      ],
      "name": "CarBorrowed",
      "type": "event"
    },
    {
      "anonymous": false,
      "inputs": [
        {
          "indexed": false,
          "internalType": "uint256[]",
          "name": "",
          "type": "uint256[]"
        }
      ],
      "name": "GetAvailableCars",
      "type": "event"
    },
    {
      "anonymous": false,
      "inputs": [
        {
          "indexed": false,
          "internalType": "uint256[]",
          "name": "",
          "type": "uint256[]"
        }
      ],
      "name": "GetMyCarList",
      "type": "event"
    },
    {
      "anonymous": false,
      "inputs": [
        {
          "indexed": false,
          "internalType": "uint256",
          "name": "carTokenId",
          "type": "uint256"
        }
      ],
      "name": "MintCar",
      "type": "event"
    },
    {
      "anonymous": false,
      "inputs": [
        {
          "indexed": true,
          "internalType": "address",
          "name": "from",
          "type": "address"
        },
        {
          "indexed": true,
          "internalType": "address",
          "name": "to",
          "type": "address"
        },
        {
          "indexed": true,
          "internalType": "uint256",
          "name": "tokenId",
          "type": "uint256"
        }
      ],
      "name": "Transfer",
      "type": "event"
    },
    {
      "anonymous": false,
      "inputs": [
        {
          "indexed": true,
          "internalType": "uint256",
          "name": "tokenId",
          "type": "uint256"
        },
        {
          "indexed": true,
          "internalType": "address",
          "name": "user",
          "type": "address"
        },
        {
          "indexed": false,
          "internalType": "uint64",
          "name": "expires",
          "type": "uint64"
        }
      ],
      "name": "UpdateUser",
      "type": "event"
    },
    {
      "inputs": [
        {
          "internalType": "address",
          "name": "to",
          "type": "address"
        },
        {
          "internalType": "uint256",
          "name": "tokenId",
          "type": "uint256"
        }
      ],
      "name": "approve",
      "outputs": [],
      "stateMutability": "nonpayable",
      "type": "function"
    },
    {
      "inputs": [
        {
          "internalType": "address",
          "name": "owner",
          "type": "address"
        }
      ],
      "name": "balanceOf",
      "outputs": [
        {
          "internalType": "uint256",
          "name": "",
          "type": "uint256"
        }
      ],
      "stateMutability": "view",
      "type": "function"
    },
    {
      "inputs": [
        {
          "internalType": "uint256",
          "name": "carId",
          "type": "uint256"
        },
        {
          "internalType": "uint256",
          "name": "hour",
          "type": "uint256"
        }
      ],
      "name": "carBorrowed",
      "outputs": [],
      "stateMutability": "nonpayable",
      "type": "function"
    },
    {
      "inputs": [
        {
          "internalType": "uint256",
          "name": "",
          "type": "uint256"
        }
      ],
      "name": "cars",
      "outputs": [
        {
          "internalType": "address",
          "name": "owner",
          "type": "address"
        },
        {
          "internalType": "address",
          "name": "borrower",
          "type": "address"
        },
        {
          "internalType": "uint256",
          "name": "borrowUntil",
          "type": "uint256"
        }
      ],
      "stateMutability": "view",
      "type": "function"
    },
    {
      "inputs": [
        {
          "internalType": "uint256",
          "name": "tokenId",
          "type": "uint256"
        }
      ],
      "name": "getApproved",
      "outputs": [
        {
          "internalType": "address",
          "name": "",
          "type": "address"
        }
      ],
      "stateMutability": "view",
      "type": "function"
    },
    {
      "inputs": [],
      "name": "getAvailableCars",
      "outputs": [
        {
          "internalType": "uint256[]",
          "name": "availableCars",
          "type": "uint256[]"
        }
      ],
      "stateMutability": "nonpayable",
      "type": "function"
    },
    {
      "inputs": [
        {
          "internalType": "uint256",
          "name": "carId",
          "type": "uint256"
        }
      ],
      "name": "getCarBorrower",
      "outputs": [
        {
          "internalType": "address",
          "name": "borrower",
          "type": "address"
        }
      ],
      "stateMutability": "view",
      "type": "function"
    },
    {
      "inputs": [
        {
          "internalType": "uint256",
          "name": "carId",
          "type": "uint256"
        }
      ],
      "name": "getCarOwner",
      "outputs": [
        {
          "internalType": "address",
          "name": "owner",
          "type": "address"
        }
      ],
      "stateMutability": "view",
      "type": "function"
    },
    {
      "inputs": [],
      "name": "getMyCarList",
      "outputs": [
        {
          "internalType": "uint256[]",
          "name": "myCarList",
          "type": "uint256[]"
        }
      ],
      "stateMutability": "nonpayable",
      "type": "function"
    },
    {
      "inputs": [
        {
          "internalType": "address",
          "name": "owner",
          "type": "address"
        },
        {
          "internalType": "address",
          "name": "operator",
          "type": "address"
        }
      ],
      "name": "isApprovedForAll",
      "outputs": [
        {
          "internalType": "bool",
          "name": "",
          "type": "bool"
        }
      ],
      "stateMutability": "view",
      "type": "function"
    },
    {
      "inputs": [],
      "name": "manager",
      "outputs": [
        {
          "internalType": "address",
          "name": "",
          "type": "address"
        }
      ],
      "stateMutability": "view",
      "type": "function"
    },
    {
      "inputs": [
        {
          "internalType": "uint256",
          "name": "CarId",
          "type": "uint256"
        },
        {
          "internalType": "address",
          "name": "to",
          "type": "address"
        }
      ],
      "name": "mint",
      "outputs": [],
      "stateMutability": "nonpayable",
      "type": "function"
    },
    {
      "inputs": [],
      "name": "mintCar",
      "outputs": [],
      "stateMutability": "payable",
      "type": "function"
    },
    {
      "inputs": [],
      "name": "myERC20",
      "outputs": [
        {
          "internalType": "contract MyERC20",
          "name": "",
          "type": "address"
        }
      ],
      "stateMutability": "view",
      "type": "function"
    },
    {
      "inputs": [],
      "name": "name",
      "outputs": [
        {
          "internalType": "string",
          "name": "",
          "type": "string"
        }
      ],
      "stateMutability": "view",
      "type": "function"
    },
    {
      "inputs": [],
      "name": "nextCarId",
      "outputs": [
        {
          "internalType": "uint256",
          "name": "",
          "type": "uint256"
        }
      ],
      "stateMutability": "view",
      "type": "function"
    },
    {
      "inputs": [
        {
          "internalType": "address",
          "name": "",
          "type": "address"
        },
        {
          "internalType": "uint256",
          "name": "",
          "type": "uint256"
        }
      ],
      "name": "ownerCarList",
      "outputs": [
        {
          "internalType": "uint256",
          "name": "",
          "type": "uint256"
        }
      ],
      "stateMutability": "view",
      "type": "function"
    },
    {
      "inputs": [
        {
          "internalType": "uint256",
          "name": "tokenId",
          "type": "uint256"
        }
      ],
      "name": "ownerOf",
      "outputs": [
        {
          "internalType": "address",
          "name": "",
          "type": "address"
        }
      ],
      "stateMutability": "view",
      "type": "function"
    },
    {
      "inputs": [],
      "name": "perCarCost",
      "outputs": [
        {
          "internalType": "uint256",
          "name": "",
          "type": "uint256"
        }
      ],
      "stateMutability": "view",
      "type": "function"
    },
    {
      "inputs": [],
      "name": "perHourCost",
      "outputs": [
        {
          "internalType": "uint256",
          "name": "",
          "type": "uint256"
        }
      ],
      "stateMutability": "view",
      "type": "function"
    },
    {
      "inputs": [
        {
          "internalType": "address",
          "name": "from",
          "type": "address"
        },
        {
          "internalType": "address",
          "name": "to",
          "type": "address"
        },
        {
          "internalType": "uint256",
          "name": "tokenId",
          "type": "uint256"
        }
      ],
      "name": "safeTransferFrom",
      "outputs": [],
      "stateMutability": "nonpayable",
      "type": "function"
    },
    {
      "inputs": [
        {
          "internalType": "address",
          "name": "from",
          "type": "address"
        },
        {
          "internalType": "address",
          "name": "to",
          "type": "address"
        },
        {
          "internalType": "uint256",
          "name": "tokenId",
          "type": "uint256"
        },
        {
          "internalType": "bytes",
          "name": "data",
          "type": "bytes"
        }
      ],
      "name": "safeTransferFrom",
      "outputs": [],
      "stateMutability": "nonpayable",
      "type": "function"
    },
    {
      "inputs": [
        {
          "internalType": "address",
          "name": "operator",
          "type": "address"
        },
        {
          "internalType": "bool",
          "name": "approved",
          "type": "bool"
        }
      ],
      "name": "setApprovalForAll",
      "outputs": [],
      "stateMutability": "nonpayable",
      "type": "function"
    },
    {
      "inputs": [
        {
          "internalType": "uint256",
          "name": "tokenId",
          "type": "uint256"
        },
        {
          "internalType": "address",
          "name": "user",
          "type": "address"
        },
        {
          "internalType": "uint64",
          "name": "expires",
          "type": "uint64"
        }
      ],
      "name": "setUser",
      "outputs": [],
      "stateMutability": "nonpayable",
      "type": "function"
    },
    {
      "inputs": [
        {
          "internalType": "bytes4",
          "name": "interfaceId",
          "type": "bytes4"
        }
      ],
      "name": "supportsInterface",
      "outputs": [
        {
          "internalType": "bool",
          "name": "",
          "type": "bool"
        }
      ],
      "stateMutability": "view",
      "type": "function"
    },
    {
      "inputs": [],
      "name": "symbol",
      "outputs": [
        {
          "internalType": "string",
          "name": "",
          "type": "string"
        }
      ],
      "stateMutability": "view",
      "type": "function"
    },
    {
      "inputs": [
        {
          "internalType": "uint256",
          "name": "tokenId",
          "type": "uint256"
        }
      ],
      "name": "tokenURI",
      "outputs": [
        {
          "internalType": "string",
          "name": "",
          "type": "string"
        }
      ],
      "stateMutability": "view",
      "type": "function"
    },
    {
      "inputs": [
        {
          "internalType": "address",
          "name": "from",
          "type": "address"
        },
        {
          "internalType": "address",
          "name": "to",
          "type": "address"
        },
        {
          "internalType": "uint256",
          "name": "tokenId",
          "type": "uint256"
        }
      ],
      "name": "transferFrom",
      "outputs": [],
      "stateMutability": "nonpayable",
      "type": "function"
    },
    {
      "inputs": [
        {
          "internalType": "uint256",
          "name": "tokenId",
          "type": "uint256"
        }
      ],
      "name": "userExpires",
      "outputs": [
        {
          "internalType": "uint256",
          "name": "",
          "type": "uint256"
        }
      ],
      "stateMutability": "view",
      "type": "function"
    },
    {
      "inputs": [
        {
          "internalType": "uint256",
          "name": "tokenId",
          "type": "uint256"
        }
      ],
      "name": "userOf",
      "outputs": [
        {
          "internalType": "address",
          "name": "",
          "type": "address"
        }
      ],
      "stateMutability": "view",
      "type": "function"
    }
  ],
  "bytecode": "0x6080604052600060075560016008553480156200001b57600080fd5b506040518060400160405280600781526020017f4f54544f4e4654000000000000000000000000000000000000000000000000008152506040518060400160405280600d81526020017f4f54544f4e465453796d626f6c00000000000000000000000000000000000000815250818181600090816200009b9190620003f8565b508060019081620000ad9190620003f8565b5050505050604051620000c09062000170565b620000cb9062000590565b604051809103906000f080158015620000e8573d6000803e3d6000fd5b50600c60006101000a81548173ffffffffffffffffffffffffffffffffffffffff021916908373ffffffffffffffffffffffffffffffffffffffff16021790555033600960006101000a81548173ffffffffffffffffffffffffffffffffffffffff021916908373ffffffffffffffffffffffffffffffffffffffff160217905550620005c7565b611638806200398883390190565b600081519050919050565b7f4e487b7100000000000000000000000000000000000000000000000000000000600052604160045260246000fd5b7f4e487b7100000000000000000000000000000000000000000000000000000000600052602260045260246000fd5b600060028204905060018216806200020057607f821691505b602082108103620002165762000215620001b8565b5b50919050565b60008190508160005260206000209050919050565b60006020601f8301049050919050565b600082821b905092915050565b600060088302620002807fffffffffffffffffffffffffffffffffffffffffffffffffffffffffffffffff8262000241565b6200028c868362000241565b95508019841693508086168417925050509392505050565b6000819050919050565b6000819050919050565b6000620002d9620002d3620002cd84620002a4565b620002ae565b620002a4565b9050919050565b6000819050919050565b620002f583620002b8565b6200030d6200030482620002e0565b8484546200024e565b825550505050565b600090565b6200032462000315565b62000331818484620002ea565b505050565b5b8181101562000359576200034d6000826200031a565b60018101905062000337565b5050565b601f821115620003a85762000372816200021c565b6200037d8462000231565b810160208510156200038d578190505b620003a56200039c8562000231565b83018262000336565b50505b505050565b600082821c905092915050565b6000620003cd60001984600802620003ad565b1980831691505092915050565b6000620003e88383620003ba565b9150826002028217905092915050565b62000403826200017e565b67ffffffffffffffff8111156200041f576200041e62000189565b5b6200042b8254620001e7565b620004388282856200035d565b600060209050601f8311600181146200047057600084156200045b578287015190505b620004678582620003da565b865550620004d7565b601f19841662000480866200021c565b60005b82811015620004aa5784890151825560018201915060208501945060208101905062000483565b86831015620004ca5784890151620004c6601f891682620003ba565b8355505b6001600288020188555050505b505050505050565b600082825260208201905092915050565b7f4f54544f546f6b656e0000000000000000000000000000000000000000000000600082015250565b600062000528600983620004df565b91506200053582620004f0565b602082019050919050565b7f4f54544f546f6b656e53796d626f6c0000000000000000000000000000000000600082015250565b600062000578600f83620004df565b9150620005858262000540565b602082019050919050565b60006040820190508181036000830152620005ab8162000519565b90508181036020830152620005c08162000569565b9050919050565b6133b180620005d76000396000f3fe6080604052600436106101cd5760003560e01c806370a08231116100f7578063c2f1f14a11610095578063db1506d911610064578063db1506d9146106b5578063e030565e146106e0578063e985e9c514610709578063f7746e3614610746576101cd565b8063c2f1f14a146105c1578063c3c70591146105fe578063c87b56dd1461063b578063d649669114610678576101cd565b806394bf804d116100d157806394bf804d1461051b57806395d89b4114610544578063a22cb4651461056f578063b88d4fde14610598576101cd565b806370a08231146104765780638c8bfa06146104b35780638fc88c48146104de576101cd565b8063383016631161016f5780634795d1c91161013e5780634795d1c9146103b8578063481c6a75146103e35780636352211e1461040e5780636d3739c41461044b576101cd565b806338301663146103315780633a7bb4b21461035a57806342842e0e14610364578063433b80461461038d576101cd565b8063081812fc116101ab578063081812fc14610265578063095ea7b3146102a25780631db8bd44146102cb57806323b872dd14610308576101cd565b806301ffc9a7146101d257806306fdde031461020f578063075b41fd1461023a575b600080fd5b3480156101de57600080fd5b506101f960048036038101906101f491906125d0565b610785565b6040516102069190612618565b60405180910390f35b34801561021b57600080fd5b506102246107ff565b60405161023191906126c3565b60405180910390f35b34801561024657600080fd5b5061024f610891565b60405161025c91906126fe565b60405180910390f35b34801561027157600080fd5b5061028c60048036038101906102879190612745565b610896565b60405161029991906127b3565b60405180910390f35b3480156102ae57600080fd5b506102c960048036038101906102c491906127fa565b6108b2565b005b3480156102d757600080fd5b506102f260048036038101906102ed9190612745565b6108c8565b6040516102ff91906127b3565b60405180910390f35b34801561031457600080fd5b5061032f600480360381019061032a919061283a565b61091e565b005b34801561033d57600080fd5b506103586004803603810190610353919061288d565b610a20565b005b610362610d71565b005b34801561037057600080fd5b5061038b6004803603810190610386919061283a565b610f68565b005b34801561039957600080fd5b506103a2610f88565b6040516103af919061298b565b60405180910390f35b3480156103c457600080fd5b506103cd6110c5565b6040516103da919061298b565b60405180910390f35b3480156103ef57600080fd5b506103f8611191565b60405161040591906127b3565b60405180910390f35b34801561041a57600080fd5b5061043560048036038101906104309190612745565b6111b7565b60405161044291906127b3565b60405180910390f35b34801561045757600080fd5b506104606111c9565b60405161046d9190612a0c565b60405180910390f35b34801561048257600080fd5b5061049d60048036038101906104989190612a27565b6111ef565b6040516104aa91906126fe565b60405180910390f35b3480156104bf57600080fd5b506104c86112a9565b6040516104d591906126fe565b60405180910390f35b3480156104ea57600080fd5b5061050560048036038101906105009190612745565b6112af565b60405161051291906126fe565b60405180910390f35b34801561052757600080fd5b50610542600480360381019061053d9190612a54565b6112ed565b005b34801561055057600080fd5b506105596112fb565b60405161056691906126c3565b60405180910390f35b34801561057b57600080fd5b5061059660048036038101906105919190612ac0565b61138d565b005b3480156105a457600080fd5b506105bf60048036038101906105ba9190612c35565b6113a3565b005b3480156105cd57600080fd5b506105e860048036038101906105e39190612745565b6113c0565b6040516105f591906127b3565b60405180910390f35b34801561060a57600080fd5b5061062560048036038101906106209190612745565b611445565b60405161063291906127b3565b60405180910390f35b34801561064757600080fd5b50610662600480360381019061065d9190612745565b6114c9565b60405161066f91906126c3565b60405180910390f35b34801561068457600080fd5b5061069f600480360381019061069a91906127fa565b611532565b6040516106ac91906126fe565b60405180910390f35b3480156106c157600080fd5b506106ca611563565b6040516106d791906126fe565b60405180910390f35b3480156106ec57600080fd5b5061070760048036038101906107029190612cf8565b611569565b005b34801561071557600080fd5b50610730600480360381019061072b9190612d4b565b611643565b60405161073d9190612618565b60405180910390f35b34801561075257600080fd5b5061076d60048036038101906107689190612745565b6116d7565b60405161077c93929190612d8b565b60405180910390f35b60007fad092b5c000000000000000000000000000000000000000000000000000000007bffffffffffffffffffffffffffffffffffffffffffffffffffffffff1916827bffffffffffffffffffffffffffffffffffffffffffffffffffffffff191614806107f857506107f782611741565b5b9050919050565b60606000805461080e90612df1565b80601f016020809104026020016040519081016040528092919081815260200182805461083a90612df1565b80156108875780601f1061085c57610100808354040283529160200191610887565b820191906000526020600020905b81548152906001019060200180831161086a57829003601f168201915b5050505050905090565b600a81565b60006108a182611823565b506108ab826118ab565b9050919050565b6108c482826108bf6118e8565b6118f0565b5050565b6000600754821061090e576040517f08c379a000000000000000000000000000000000000000000000000000000000815260040161090590612e6e565b60405180910390fd5b610917826113c0565b9050919050565b600073ffffffffffffffffffffffffffffffffffffffff168273ffffffffffffffffffffffffffffffffffffffff16036109905760006040517f64a0ae9200000000000000000000000000000000000000000000000000000000815260040161098791906127b3565b60405180910390fd5b60006109a4838361099f6118e8565b611902565b90508373ffffffffffffffffffffffffffffffffffffffff168173ffffffffffffffffffffffffffffffffffffffff1614610a1a578382826040517f64283d7b000000000000000000000000000000000000000000000000000000008152600401610a1193929190612e8e565b60405180910390fd5b50505050565b6000600a82610a2f9190612ef4565b90506007548310610a75576040517f08c379a0000000000000000000000000000000000000000000000000000000008152600401610a6c90612e6e565b60405180910390fd5b600a6000848152602001908152602001600020600201544211610acd576040517f08c379a0000000000000000000000000000000000000000000000000000000008152600401610ac490612f82565b60405180910390fd5b600c60009054906101000a900473ffffffffffffffffffffffffffffffffffffffff1673ffffffffffffffffffffffffffffffffffffffff166370a08231336040518263ffffffff1660e01b8152600401610b2891906127b3565b602060405180830381865afa158015610b45573d6000803e3d6000fd5b505050506040513d601f19601f82011682018060405250810190610b699190612fb7565b811115610bab576040517f08c379a0000000000000000000000000000000000000000000000000000000008152600401610ba290613030565b60405180910390fd5b610bce8333610e1085610bbe9190612ef4565b42610bc99190613050565b611569565b610e1082610bdc9190612ef4565b42610be79190613050565b600a60008581526020019081526020016000206002018190555033600a600085815260200190815260200160002060010160006101000a81548173ffffffffffffffffffffffffffffffffffffffff021916908373ffffffffffffffffffffffffffffffffffffffff160217905550600c60009054906101000a900473ffffffffffffffffffffffffffffffffffffffff1673ffffffffffffffffffffffffffffffffffffffff166323b872dd33600a600087815260200190815260200160002060000160009054906101000a900473ffffffffffffffffffffffffffffffffffffffff16846040518463ffffffff1660e01b8152600401610ceb93929190612d8b565b6020604051808303816000875af1158015610d0a573d6000803e3d6000fd5b505050506040513d601f19601f82011682018060405250810190610d2e9190613099565b507f8879d78706834dc00d82232992f71250fab6a1f70b08260968253950083d88cd83334285604051610d6494939291906130c6565b60405180910390a1505050565b600854341015610db6576040517f08c379a0000000000000000000000000000000000000000000000000000000008152600401610dad90613030565b60405180910390fd5b610dc2600754336112ed565b33600a6000600754815260200190815260200160002060000160006101000a81548173ffffffffffffffffffffffffffffffffffffffff021916908373ffffffffffffffffffffffffffffffffffffffff16021790555042600a6000600754815260200190815260200160002060020181905550600b60003373ffffffffffffffffffffffffffffffffffffffff1673ffffffffffffffffffffffffffffffffffffffff168152602001908152602001600020600754908060018154018082558091505060019003906000526020600020016000909190919091505560076000815480929190610eb19061310b565b9190505550600960009054906101000a900473ffffffffffffffffffffffffffffffffffffffff1673ffffffffffffffffffffffffffffffffffffffff166108fc6008549081150290604051600060405180830381858888f19350505050158015610f20573d6000803e3d6000fd5b507fce1f40a1acc8d5da4915d8569bc4cb8c210b020e06c0a5153026585c96f75d006001600754610f519190613153565b604051610f5e91906126fe565b60405180910390a1565b610f83838383604051806020016040528060008152506113a3565b505050565b60606000805b600754811015610fd857600a600082815260200190815260200160002060020154421115610fc5578180610fc19061310b565b9250505b8080610fd09061310b565b915050610f8e565b5060008167ffffffffffffffff811115610ff557610ff4612b0a565b5b6040519080825280602002602001820160405280156110235781602001602082028036833780820191505090505b5090506000805b8381101561108457600a600082815260200190815260200160002060020154421115611071578083838151811061106457611063613187565b5b6020026020010181815250505b808061107c9061310b565b91505061102a565b508193507f622b03fd33234b5a4c7b5d3357ea8a2552cb43fdf13a62ff91308bbff704af71846040516110b7919061298b565b60405180910390a150505090565b6060600b60003373ffffffffffffffffffffffffffffffffffffffff1673ffffffffffffffffffffffffffffffffffffffff16815260200190815260200160002080548060200260200160405190810160405280929190818152602001828054801561115057602002820191906000526020600020905b81548152602001906001019080831161113c575b505050505090507f226c6e3b074540c8a9911056a34c68f0167fd281fd2d828aad764225418f418281604051611186919061298b565b60405180910390a190565b600960009054906101000a900473ffffffffffffffffffffffffffffffffffffffff1681565b60006111c282611823565b9050919050565b600c60009054906101000a900473ffffffffffffffffffffffffffffffffffffffff1681565b60008073ffffffffffffffffffffffffffffffffffffffff168273ffffffffffffffffffffffffffffffffffffffff16036112625760006040517f89c62b6400000000000000000000000000000000000000000000000000000000815260040161125991906127b3565b60405180910390fd5b600360008373ffffffffffffffffffffffffffffffffffffffff1673ffffffffffffffffffffffffffffffffffffffff168152602001908152602001600020549050919050565b60075481565b60006006600083815260200190815260200160002060000160149054906101000a900467ffffffffffffffff1667ffffffffffffffff169050919050565b6112f78183611b1c565b5050565b60606001805461130a90612df1565b80601f016020809104026020016040519081016040528092919081815260200182805461133690612df1565b80156113835780601f1061135857610100808354040283529160200191611383565b820191906000526020600020905b81548152906001019060200180831161136657829003601f168201915b5050505050905090565b61139f6113986118e8565b8383611c15565b5050565b6113ae84848461091e565b6113ba84848484611d84565b50505050565b6000426006600084815260200190815260200160002060000160149054906101000a900467ffffffffffffffff1667ffffffffffffffff161061143b576006600083815260200190815260200160002060000160009054906101000a900473ffffffffffffffffffffffffffffffffffffffff169050611440565b600090505b919050565b6000600754821061148b576040517f08c379a000000000000000000000000000000000000000000000000000000000815260040161148290612e6e565b60405180910390fd5b600a600083815260200190815260200160002060000160009054906101000a900473ffffffffffffffffffffffffffffffffffffffff169050919050565b60606114d482611823565b5060006114df611f3b565b905060008151116114ff576040518060200160405280600081525061152a565b8061150984611f52565b60405160200161151a9291906131f2565b6040516020818303038152906040525b915050919050565b600b602052816000526040600020818154811061154e57600080fd5b90600052602060002001600091509150505481565b60085481565b6000600660008581526020019081526020016000209050828160000160006101000a81548173ffffffffffffffffffffffffffffffffffffffff021916908373ffffffffffffffffffffffffffffffffffffffff160217905550818160000160146101000a81548167ffffffffffffffff021916908367ffffffffffffffff1602179055508273ffffffffffffffffffffffffffffffffffffffff16847f4e06b4e7000e659094299b3533b47b6aa8ad048e95e872d23d1f4ee55af89cfe846040516116359190613225565b60405180910390a350505050565b6000600560008473ffffffffffffffffffffffffffffffffffffffff1673ffffffffffffffffffffffffffffffffffffffff16815260200190815260200160002060008373ffffffffffffffffffffffffffffffffffffffff1673ffffffffffffffffffffffffffffffffffffffff16815260200190815260200160002060009054906101000a900460ff16905092915050565b600a6020528060005260406000206000915090508060000160009054906101000a900473ffffffffffffffffffffffffffffffffffffffff16908060010160009054906101000a900473ffffffffffffffffffffffffffffffffffffffff16908060020154905083565b60007f80ac58cd000000000000000000000000000000000000000000000000000000007bffffffffffffffffffffffffffffffffffffffffffffffffffffffff1916827bffffffffffffffffffffffffffffffffffffffffffffffffffffffff1916148061180c57507f5b5e139f000000000000000000000000000000000000000000000000000000007bffffffffffffffffffffffffffffffffffffffffffffffffffffffff1916827bffffffffffffffffffffffffffffffffffffffffffffffffffffffff1916145b8061181c575061181b82612020565b5b9050919050565b60008061182f8361208a565b9050600073ffffffffffffffffffffffffffffffffffffffff168173ffffffffffffffffffffffffffffffffffffffff16036118a257826040517f7e27328900000000000000000000000000000000000000000000000000000000815260040161189991906126fe565b60405180910390fd5b80915050919050565b60006004600083815260200190815260200160002060009054906101000a900473ffffffffffffffffffffffffffffffffffffffff169050919050565b600033905090565b6118fd83838360016120c7565b505050565b60008061190e8461208a565b9050600073ffffffffffffffffffffffffffffffffffffffff168373ffffffffffffffffffffffffffffffffffffffff16146119505761194f81848661228c565b5b600073ffffffffffffffffffffffffffffffffffffffff168173ffffffffffffffffffffffffffffffffffffffff16146119e1576119926000856000806120c7565b6001600360008373ffffffffffffffffffffffffffffffffffffffff1673ffffffffffffffffffffffffffffffffffffffff168152602001908152602001600020600082825403925050819055505b600073ffffffffffffffffffffffffffffffffffffffff168573ffffffffffffffffffffffffffffffffffffffff1614611a64576001600360008773ffffffffffffffffffffffffffffffffffffffff1673ffffffffffffffffffffffffffffffffffffffff168152602001908152602001600020600082825401925050819055505b846002600086815260200190815260200160002060006101000a81548173ffffffffffffffffffffffffffffffffffffffff021916908373ffffffffffffffffffffffffffffffffffffffff160217905550838573ffffffffffffffffffffffffffffffffffffffff168273ffffffffffffffffffffffffffffffffffffffff167fddf252ad1be2c89b69c2b068fc378daa952ba7f163c4a11628f55a4df523b3ef60405160405180910390a4809150509392505050565b600073ffffffffffffffffffffffffffffffffffffffff168273ffffffffffffffffffffffffffffffffffffffff1603611b8e5760006040517f64a0ae92000000000000000000000000000000000000000000000000000000008152600401611b8591906127b3565b60405180910390fd5b6000611b9c83836000611902565b9050600073ffffffffffffffffffffffffffffffffffffffff168173ffffffffffffffffffffffffffffffffffffffff1614611c105760006040517f73c6ac6e000000000000000000000000000000000000000000000000000000008152600401611c0791906127b3565b60405180910390fd5b505050565b600073ffffffffffffffffffffffffffffffffffffffff168273ffffffffffffffffffffffffffffffffffffffff1603611c8657816040517f5b08ba18000000000000000000000000000000000000000000000000000000008152600401611c7d91906127b3565b60405180910390fd5b80600560008573ffffffffffffffffffffffffffffffffffffffff1673ffffffffffffffffffffffffffffffffffffffff16815260200190815260200160002060008473ffffffffffffffffffffffffffffffffffffffff1673ffffffffffffffffffffffffffffffffffffffff16815260200190815260200160002060006101000a81548160ff0219169083151502179055508173ffffffffffffffffffffffffffffffffffffffff168373ffffffffffffffffffffffffffffffffffffffff167f17307eab39ab6107e8899845ad3d59bd9653f200f220920489ca2b5937696c3183604051611d779190612618565b60405180910390a3505050565b60008373ffffffffffffffffffffffffffffffffffffffff163b1115611f35578273ffffffffffffffffffffffffffffffffffffffff1663150b7a02611dc86118e8565b8685856040518563ffffffff1660e01b8152600401611dea9493929190613295565b6020604051808303816000875af1925050508015611e2657506040513d601f19601f82011682018060405250810190611e2391906132f6565b60015b611eaa573d8060008114611e56576040519150601f19603f3d011682016040523d82523d6000602084013e611e5b565b606091505b506000815103611ea257836040517f64a0ae92000000000000000000000000000000000000000000000000000000008152600401611e9991906127b3565b60405180910390fd5b805181602001fd5b63150b7a0260e01b7bffffffffffffffffffffffffffffffffffffffffffffffffffffffff1916817bffffffffffffffffffffffffffffffffffffffffffffffffffffffff191614611f3357836040517f64a0ae92000000000000000000000000000000000000000000000000000000008152600401611f2a91906127b3565b60405180910390fd5b505b50505050565b606060405180602001604052806000815250905090565b606060006001611f6184612350565b01905060008167ffffffffffffffff811115611f8057611f7f612b0a565b5b6040519080825280601f01601f191660200182016040528015611fb25781602001600182028036833780820191505090505b509050600082602001820190505b600115612015578080600190039150507f3031323334353637383961626364656600000000000000000000000000000000600a86061a8153600a858161200957612008613323565b5b04945060008503611fc0575b819350505050919050565b60007f01ffc9a7000000000000000000000000000000000000000000000000000000007bffffffffffffffffffffffffffffffffffffffffffffffffffffffff1916827bffffffffffffffffffffffffffffffffffffffffffffffffffffffff1916149050919050565b60006002600083815260200190815260200160002060009054906101000a900473ffffffffffffffffffffffffffffffffffffffff169050919050565b80806121005750600073ffffffffffffffffffffffffffffffffffffffff168273ffffffffffffffffffffffffffffffffffffffff1614155b1561223457600061211084611823565b9050600073ffffffffffffffffffffffffffffffffffffffff168373ffffffffffffffffffffffffffffffffffffffff161415801561217b57508273ffffffffffffffffffffffffffffffffffffffff168173ffffffffffffffffffffffffffffffffffffffff1614155b801561218e575061218c8184611643565b155b156121d057826040517fa9fbf51f0000000000000000000000000000000000000000000000000000000081526004016121c791906127b3565b60405180910390fd5b811561223257838573ffffffffffffffffffffffffffffffffffffffff168273ffffffffffffffffffffffffffffffffffffffff167f8c5be1e5ebec7d5bd14f71427d1e84f3dd0314c0f7b2291e5b200ac8c7c3b92560405160405180910390a45b505b836004600085815260200190815260200160002060006101000a81548173ffffffffffffffffffffffffffffffffffffffff021916908373ffffffffffffffffffffffffffffffffffffffff16021790555050505050565b6122978383836124a3565b61234b57600073ffffffffffffffffffffffffffffffffffffffff168373ffffffffffffffffffffffffffffffffffffffff160361230c57806040517f7e27328900000000000000000000000000000000000000000000000000000000815260040161230391906126fe565b60405180910390fd5b81816040517f177e802f000000000000000000000000000000000000000000000000000000008152600401612342929190613352565b60405180910390fd5b505050565b600080600090507a184f03e93ff9f4daa797ed6e38ed64bf6a1f01000000000000000083106123ae577a184f03e93ff9f4daa797ed6e38ed64bf6a1f01000000000000000083816123a4576123a3613323565b5b0492506040810190505b6d04ee2d6d415b85acef810000000083106123eb576d04ee2d6d415b85acef810000000083816123e1576123e0613323565b5b0492506020810190505b662386f26fc10000831061241a57662386f26fc1000083816124105761240f613323565b5b0492506010810190505b6305f5e1008310612443576305f5e100838161243957612438613323565b5b0492506008810190505b612710831061246857612710838161245e5761245d613323565b5b0492506004810190505b6064831061248b576064838161248157612480613323565b5b0492506002810190505b600a831061249a576001810190505b80915050919050565b60008073ffffffffffffffffffffffffffffffffffffffff168373ffffffffffffffffffffffffffffffffffffffff161415801561255b57508273ffffffffffffffffffffffffffffffffffffffff168473ffffffffffffffffffffffffffffffffffffffff16148061251c575061251b8484611643565b5b8061255a57508273ffffffffffffffffffffffffffffffffffffffff16612542836118ab565b73ffffffffffffffffffffffffffffffffffffffff16145b5b90509392505050565b6000604051905090565b600080fd5b600080fd5b60007fffffffff0000000000000000000000000000000000000000000000000000000082169050919050565b6125ad81612578565b81146125b857600080fd5b50565b6000813590506125ca816125a4565b92915050565b6000602082840312156125e6576125e561256e565b5b60006125f4848285016125bb565b91505092915050565b60008115159050919050565b612612816125fd565b82525050565b600060208201905061262d6000830184612609565b92915050565b600081519050919050565b600082825260208201905092915050565b60005b8381101561266d578082015181840152602081019050612652565b60008484015250505050565b6000601f19601f8301169050919050565b600061269582612633565b61269f818561263e565b93506126af81856020860161264f565b6126b881612679565b840191505092915050565b600060208201905081810360008301526126dd818461268a565b905092915050565b6000819050919050565b6126f8816126e5565b82525050565b600060208201905061271360008301846126ef565b92915050565b612722816126e5565b811461272d57600080fd5b50565b60008135905061273f81612719565b92915050565b60006020828403121561275b5761275a61256e565b5b600061276984828501612730565b91505092915050565b600073ffffffffffffffffffffffffffffffffffffffff82169050919050565b600061279d82612772565b9050919050565b6127ad81612792565b82525050565b60006020820190506127c860008301846127a4565b92915050565b6127d781612792565b81146127e257600080fd5b50565b6000813590506127f4816127ce565b92915050565b600080604083850312156128115761281061256e565b5b600061281f858286016127e5565b925050602061283085828601612730565b9150509250929050565b6000806000606084860312156128535761285261256e565b5b6000612861868287016127e5565b9350506020612872868287016127e5565b925050604061288386828701612730565b9150509250925092565b600080604083850312156128a4576128a361256e565b5b60006128b285828601612730565b92505060206128c385828601612730565b9150509250929050565b600081519050919050565b600082825260208201905092915050565b6000819050602082019050919050565b612902816126e5565b82525050565b600061291483836128f9565b60208301905092915050565b6000602082019050919050565b6000612938826128cd565b61294281856128d8565b935061294d836128e9565b8060005b8381101561297e5781516129658882612908565b975061297083612920565b925050600181019050612951565b5085935050505092915050565b600060208201905081810360008301526129a5818461292d565b905092915050565b6000819050919050565b60006129d26129cd6129c884612772565b6129ad565b612772565b9050919050565b60006129e4826129b7565b9050919050565b60006129f6826129d9565b9050919050565b612a06816129eb565b82525050565b6000602082019050612a2160008301846129fd565b92915050565b600060208284031215612a3d57612a3c61256e565b5b6000612a4b848285016127e5565b91505092915050565b60008060408385031215612a6b57612a6a61256e565b5b6000612a7985828601612730565b9250506020612a8a858286016127e5565b9150509250929050565b612a9d816125fd565b8114612aa857600080fd5b50565b600081359050612aba81612a94565b92915050565b60008060408385031215612ad757612ad661256e565b5b6000612ae5858286016127e5565b9250506020612af685828601612aab565b9150509250929050565b600080fd5b600080fd5b7f4e487b7100000000000000000000000000000000000000000000000000000000600052604160045260246000fd5b612b4282612679565b810181811067ffffffffffffffff82111715612b6157612b60612b0a565b5b80604052505050565b6000612b74612564565b9050612b808282612b39565b919050565b600067ffffffffffffffff821115612ba057612b9f612b0a565b5b612ba982612679565b9050602081019050919050565b82818337600083830152505050565b6000612bd8612bd384612b85565b612b6a565b905082815260208101848484011115612bf457612bf3612b05565b5b612bff848285612bb6565b509392505050565b600082601f830112612c1c57612c1b612b00565b5b8135612c2c848260208601612bc5565b91505092915050565b60008060008060808587031215612c4f57612c4e61256e565b5b6000612c5d878288016127e5565b9450506020612c6e878288016127e5565b9350506040612c7f87828801612730565b925050606085013567ffffffffffffffff811115612ca057612c9f612573565b5b612cac87828801612c07565b91505092959194509250565b600067ffffffffffffffff82169050919050565b612cd581612cb8565b8114612ce057600080fd5b50565b600081359050612cf281612ccc565b92915050565b600080600060608486031215612d1157612d1061256e565b5b6000612d1f86828701612730565b9350506020612d30868287016127e5565b9250506040612d4186828701612ce3565b9150509250925092565b60008060408385031215612d6257612d6161256e565b5b6000612d70858286016127e5565b9250506020612d81858286016127e5565b9150509250929050565b6000606082019050612da060008301866127a4565b612dad60208301856127a4565b612dba60408301846126ef565b949350505050565b7f4e487b7100000000000000000000000000000000000000000000000000000000600052602260045260246000fd5b60006002820490506001821680612e0957607f821691505b602082108103612e1c57612e1b612dc2565b5b50919050565b7f4e6f207375636820636172210000000000000000000000000000000000000000600082015250565b6000612e58600c8361263e565b9150612e6382612e22565b602082019050919050565b60006020820190508181036000830152612e8781612e4b565b9050919050565b6000606082019050612ea360008301866127a4565b612eb060208301856126ef565b612ebd60408301846127a4565b949350505050565b7f4e487b7100000000000000000000000000000000000000000000000000000000600052601160045260246000fd5b6000612eff826126e5565b9150612f0a836126e5565b9250828202612f18816126e5565b91508282048414831517612f2f57612f2e612ec5565b5b5092915050565b7f4e6f7420617661696c61626c6500000000000000000000000000000000000000600082015250565b6000612f6c600d8361263e565b9150612f7782612f36565b602082019050919050565b60006020820190508181036000830152612f9b81612f5f565b9050919050565b600081519050612fb181612719565b92915050565b600060208284031215612fcd57612fcc61256e565b5b6000612fdb84828501612fa2565b91505092915050565b7f6c61636b206f662066756e647300000000000000000000000000000000000000600082015250565b600061301a600d8361263e565b915061302582612fe4565b602082019050919050565b600060208201905081810360008301526130498161300d565b9050919050565b600061305b826126e5565b9150613066836126e5565b925082820190508082111561307e5761307d612ec5565b5b92915050565b60008151905061309381612a94565b92915050565b6000602082840312156130af576130ae61256e565b5b60006130bd84828501613084565b91505092915050565b60006080820190506130db60008301876126ef565b6130e860208301866127a4565b6130f560408301856126ef565b61310260608301846126ef565b95945050505050565b6000613116826126e5565b91507fffffffffffffffffffffffffffffffffffffffffffffffffffffffffffffffff820361314857613147612ec5565b5b600182019050919050565b600061315e826126e5565b9150613169836126e5565b925082820390508181111561318157613180612ec5565b5b92915050565b7f4e487b7100000000000000000000000000000000000000000000000000000000600052603260045260246000fd5b600081905092915050565b60006131cc82612633565b6131d681856131b6565b93506131e681856020860161264f565b80840191505092915050565b60006131fe82856131c1565b915061320a82846131c1565b91508190509392505050565b61321f81612cb8565b82525050565b600060208201905061323a6000830184613216565b92915050565b600081519050919050565b600082825260208201905092915050565b600061326782613240565b613271818561324b565b935061328181856020860161264f565b61328a81612679565b840191505092915050565b60006080820190506132aa60008301876127a4565b6132b760208301866127a4565b6132c460408301856126ef565b81810360608301526132d6818461325c565b905095945050505050565b6000815190506132f0816125a4565b92915050565b60006020828403121561330c5761330b61256e565b5b600061331a848285016132e1565b91505092915050565b7f4e487b7100000000000000000000000000000000000000000000000000000000600052601260045260246000fd5b600060408201905061336760008301856127a4565b61337460208301846126ef565b939250505056fea2646970667358221220f37bb4dd1e9fb58e6a6303a8a5297e0d34b116bd93e075fb18288370ab89973e64736f6c6343000814003360806040523480156200001157600080fd5b5060405162001638380380620016388339818101604052810190620000379190620001fa565b818181600390816200004a9190620004ca565b5080600490816200005c9190620004ca565b5050505050620005b1565b6000604051905090565b600080fd5b600080fd5b600080fd5b600080fd5b6000601f19601f8301169050919050565b7f4e487b7100000000000000000000000000000000000000000000000000000000600052604160045260246000fd5b620000d08262000085565b810181811067ffffffffffffffff82111715620000f257620000f162000096565b5b80604052505050565b60006200010762000067565b9050620001158282620000c5565b919050565b600067ffffffffffffffff82111562000138576200013762000096565b5b620001438262000085565b9050602081019050919050565b60005b838110156200017057808201518184015260208101905062000153565b60008484015250505050565b6000620001936200018d846200011a565b620000fb565b905082815260208101848484011115620001b257620001b162000080565b5b620001bf84828562000150565b509392505050565b600082601f830112620001df57620001de6200007b565b5b8151620001f18482602086016200017c565b91505092915050565b6000806040838503121562000214576200021362000071565b5b600083015167ffffffffffffffff81111562000235576200023462000076565b5b6200024385828601620001c7565b925050602083015167ffffffffffffffff81111562000267576200026662000076565b5b6200027585828601620001c7565b9150509250929050565b600081519050919050565b7f4e487b7100000000000000000000000000000000000000000000000000000000600052602260045260246000fd5b60006002820490506001821680620002d257607f821691505b602082108103620002e857620002e76200028a565b5b50919050565b60008190508160005260206000209050919050565b60006020601f8301049050919050565b600082821b905092915050565b600060088302620003527fffffffffffffffffffffffffffffffffffffffffffffffffffffffffffffffff8262000313565b6200035e868362000313565b95508019841693508086168417925050509392505050565b6000819050919050565b6000819050919050565b6000620003ab620003a56200039f8462000376565b62000380565b62000376565b9050919050565b6000819050919050565b620003c7836200038a565b620003df620003d682620003b2565b84845462000320565b825550505050565b600090565b620003f6620003e7565b62000403818484620003bc565b505050565b5b818110156200042b576200041f600082620003ec565b60018101905062000409565b5050565b601f8211156200047a576200044481620002ee565b6200044f8462000303565b810160208510156200045f578190505b620004776200046e8562000303565b83018262000408565b50505b505050565b600082821c905092915050565b60006200049f600019846008026200047f565b1980831691505092915050565b6000620004ba83836200048c565b9150826002028217905092915050565b620004d5826200027f565b67ffffffffffffffff811115620004f157620004f062000096565b5b620004fd8254620002b9565b6200050a8282856200042f565b600060209050601f8311600181146200054257600084156200052d578287015190505b620005398582620004ac565b865550620005a9565b601f1984166200055286620002ee565b60005b828110156200057c5784890151825560018201915060208501945060208101905062000555565b868310156200059c578489015162000598601f8916826200048c565b8355505b6001600288020188555050505b505050505050565b61107780620005c16000396000f3fe608060405234801561001057600080fd5b506004361061009e5760003560e01c80633884d635116100665780633884d6351461015d57806370a082311461016757806395d89b4114610197578063a9059cbb146101b5578063dd62ed3e146101e55761009e565b806306fdde03146100a3578063095ea7b3146100c157806318160ddd146100f157806323b872dd1461010f578063313ce5671461013f575b600080fd5b6100ab610215565b6040516100b89190610c39565b60405180910390f35b6100db60048036038101906100d69190610cf4565b6102a7565b6040516100e89190610d4f565b60405180910390f35b6100f96102ca565b6040516101069190610d79565b60405180910390f35b61012960048036038101906101249190610d94565b6102d4565b6040516101369190610d4f565b60405180910390f35b610147610303565b6040516101549190610e03565b60405180910390f35b61016561030c565b005b610181600480360381019061017c9190610e1e565b610405565b60405161018e9190610d79565b60405180910390f35b61019f61044d565b6040516101ac9190610c39565b60405180910390f35b6101cf60048036038101906101ca9190610cf4565b6104df565b6040516101dc9190610d4f565b60405180910390f35b6101ff60048036038101906101fa9190610e4b565b610502565b60405161020c9190610d79565b60405180910390f35b60606003805461022490610eba565b80601f016020809104026020016040519081016040528092919081815260200182805461025090610eba565b801561029d5780601f106102725761010080835404028352916020019161029d565b820191906000526020600020905b81548152906001019060200180831161028057829003601f168201915b5050505050905090565b6000806102b2610589565b90506102bf818585610591565b600191505092915050565b6000600254905090565b6000806102df610589565b90506102ec8582856105a3565b6102f7858585610637565b60019150509392505050565b60006012905090565b60001515600560003373ffffffffffffffffffffffffffffffffffffffff1673ffffffffffffffffffffffffffffffffffffffff16815260200190815260200160002060009054906101000a900460ff1615151461039f576040517f08c379a000000000000000000000000000000000000000000000000000000000815260040161039690610f5d565b60405180910390fd5b6103ab3361271061072b565b6001600560003373ffffffffffffffffffffffffffffffffffffffff1673ffffffffffffffffffffffffffffffffffffffff16815260200190815260200160002060006101000a81548160ff021916908315150217905550565b60008060008373ffffffffffffffffffffffffffffffffffffffff1673ffffffffffffffffffffffffffffffffffffffff168152602001908152602001600020549050919050565b60606004805461045c90610eba565b80601f016020809104026020016040519081016040528092919081815260200182805461048890610eba565b80156104d55780601f106104aa576101008083540402835291602001916104d5565b820191906000526020600020905b8154815290600101906020018083116104b857829003601f168201915b5050505050905090565b6000806104ea610589565b90506104f7818585610637565b600191505092915050565b6000600160008473ffffffffffffffffffffffffffffffffffffffff1673ffffffffffffffffffffffffffffffffffffffff16815260200190815260200160002060008373ffffffffffffffffffffffffffffffffffffffff1673ffffffffffffffffffffffffffffffffffffffff16815260200190815260200160002054905092915050565b600033905090565b61059e83838360016107ad565b505050565b60006105af8484610502565b90507fffffffffffffffffffffffffffffffffffffffffffffffffffffffffffffffff81146106315781811015610621578281836040517ffb8f41b200000000000000000000000000000000000000000000000000000000815260040161061893929190610f8c565b60405180910390fd5b610630848484840360006107ad565b5b50505050565b600073ffffffffffffffffffffffffffffffffffffffff168373ffffffffffffffffffffffffffffffffffffffff16036106a95760006040517f96c6fd1e0000000000000000000000000000000000000000000000000000000081526004016106a09190610fc3565b60405180910390fd5b600073ffffffffffffffffffffffffffffffffffffffff168273ffffffffffffffffffffffffffffffffffffffff160361071b5760006040517fec442f050000000000000000000000000000000000000000000000000000000081526004016107129190610fc3565b60405180910390fd5b610726838383610984565b505050565b600073ffffffffffffffffffffffffffffffffffffffff168273ffffffffffffffffffffffffffffffffffffffff160361079d5760006040517fec442f050000000000000000000000000000000000000000000000000000000081526004016107949190610fc3565b60405180910390fd5b6107a960008383610984565b5050565b600073ffffffffffffffffffffffffffffffffffffffff168473ffffffffffffffffffffffffffffffffffffffff160361081f5760006040517fe602df050000000000000000000000000000000000000000000000000000000081526004016108169190610fc3565b60405180910390fd5b600073ffffffffffffffffffffffffffffffffffffffff168373ffffffffffffffffffffffffffffffffffffffff16036108915760006040517f94280d620000000000000000000000000000000000000000000000000000000081526004016108889190610fc3565b60405180910390fd5b81600160008673ffffffffffffffffffffffffffffffffffffffff1673ffffffffffffffffffffffffffffffffffffffff16815260200190815260200160002060008573ffffffffffffffffffffffffffffffffffffffff1673ffffffffffffffffffffffffffffffffffffffff16815260200190815260200160002081905550801561097e578273ffffffffffffffffffffffffffffffffffffffff168473ffffffffffffffffffffffffffffffffffffffff167f8c5be1e5ebec7d5bd14f71427d1e84f3dd0314c0f7b2291e5b200ac8c7c3b925846040516109759190610d79565b60405180910390a35b50505050565b600073ffffffffffffffffffffffffffffffffffffffff168373ffffffffffffffffffffffffffffffffffffffff16036109d65780600260008282546109ca919061100d565b92505081905550610aa9565b60008060008573ffffffffffffffffffffffffffffffffffffffff1673ffffffffffffffffffffffffffffffffffffffff16815260200190815260200160002054905081811015610a62578381836040517fe450d38c000000000000000000000000000000000000000000000000000000008152600401610a5993929190610f8c565b60405180910390fd5b8181036000808673ffffffffffffffffffffffffffffffffffffffff1673ffffffffffffffffffffffffffffffffffffffff16815260200190815260200160002081905550505b600073ffffffffffffffffffffffffffffffffffffffff168273ffffffffffffffffffffffffffffffffffffffff1603610af25780600260008282540392505081905550610b3f565b806000808473ffffffffffffffffffffffffffffffffffffffff1673ffffffffffffffffffffffffffffffffffffffff168152602001908152602001600020600082825401925050819055505b8173ffffffffffffffffffffffffffffffffffffffff168373ffffffffffffffffffffffffffffffffffffffff167fddf252ad1be2c89b69c2b068fc378daa952ba7f163c4a11628f55a4df523b3ef83604051610b9c9190610d79565b60405180910390a3505050565b600081519050919050565b600082825260208201905092915050565b60005b83811015610be3578082015181840152602081019050610bc8565b60008484015250505050565b6000601f19601f8301169050919050565b6000610c0b82610ba9565b610c158185610bb4565b9350610c25818560208601610bc5565b610c2e81610bef565b840191505092915050565b60006020820190508181036000830152610c538184610c00565b905092915050565b600080fd5b600073ffffffffffffffffffffffffffffffffffffffff82169050919050565b6000610c8b82610c60565b9050919050565b610c9b81610c80565b8114610ca657600080fd5b50565b600081359050610cb881610c92565b92915050565b6000819050919050565b610cd181610cbe565b8114610cdc57600080fd5b50565b600081359050610cee81610cc8565b92915050565b60008060408385031215610d0b57610d0a610c5b565b5b6000610d1985828601610ca9565b9250506020610d2a85828601610cdf565b9150509250929050565b60008115159050919050565b610d4981610d34565b82525050565b6000602082019050610d646000830184610d40565b92915050565b610d7381610cbe565b82525050565b6000602082019050610d8e6000830184610d6a565b92915050565b600080600060608486031215610dad57610dac610c5b565b5b6000610dbb86828701610ca9565b9350506020610dcc86828701610ca9565b9250506040610ddd86828701610cdf565b9150509250925092565b600060ff82169050919050565b610dfd81610de7565b82525050565b6000602082019050610e186000830184610df4565b92915050565b600060208284031215610e3457610e33610c5b565b5b6000610e4284828501610ca9565b91505092915050565b60008060408385031215610e6257610e61610c5b565b5b6000610e7085828601610ca9565b9250506020610e8185828601610ca9565b9150509250929050565b7f4e487b7100000000000000000000000000000000000000000000000000000000600052602260045260246000fd5b60006002820490506001821680610ed257607f821691505b602082108103610ee557610ee4610e8b565b5b50919050565b7f5468697320757365722068617320636c61696d65642061697264726f7020616c60008201527f7265616479000000000000000000000000000000000000000000000000000000602082015250565b6000610f47602583610bb4565b9150610f5282610eeb565b604082019050919050565b60006020820190508181036000830152610f7681610f3a565b9050919050565b610f8681610c80565b82525050565b6000606082019050610fa16000830186610f7d565b610fae6020830185610d6a565b610fbb6040830184610d6a565b949350505050565b6000602082019050610fd86000830184610f7d565b92915050565b7f4e487b7100000000000000000000000000000000000000000000000000000000600052601160045260246000fd5b600061101882610cbe565b915061102383610cbe565b925082820190508082111561103b5761103a610fde565b5b9291505056fea264697066735822122096b2623affc8eb97e77bb0b467c931c93b4bc4dcb90eecf2a76ff55d88f3314c64736f6c63430008140033",
  "linkReferences": {},
  "deployedLinkReferences": {}
}