{
  "_format": "hh-sol-artifact-1",
  "contractName": "BorrowYourCar",
  "sourceName": "contracts/BorrowYourCar.sol",
  "abi": [
    {
      "inputs": [],
      "stateMutability": "nonpayable",
      "type": "constructor"
    },
    {
      "inputs": [
        {
          "internalType": "address",
          "name": "sender",
          "type": "address"
        },
        {
          "internalType": "uint256",
          "name": "tokenId",
          "type": "uint256"
        },
        {
          "internalType": "address",
          "name": "owner",
          "type": "address"
        }
      ],
      "name": "ERC721IncorrectOwner",
      "type": "error"
    },
    {
      "inputs": [
        {
          "internalType": "address",
          "name": "operator",
          "type": "address"
        },
        {
          "internalType": "uint256",
          "name": "tokenId",
          "type": "uint256"
        }
      ],
      "name": "ERC721InsufficientApproval",
      "type": "error"
    },
    {
      "inputs": [
        {
          "internalType": "address",
          "name": "approver",
          "type": "address"
        }
      ],
      "name": "ERC721InvalidApprover",
      "type": "error"
    },
    {
      "inputs": [
        {
          "internalType": "address",
          "name": "operator",
          "type": "address"
        }
      ],
      "name": "ERC721InvalidOperator",
      "type": "error"
    },
    {
      "inputs": [
        {
          "internalType": "address",
          "name": "owner",
          "type": "address"
        }
      ],
      "name": "ERC721InvalidOwner",
      "type": "error"
    },
    {
      "inputs": [
        {
          "internalType": "address",
          "name": "receiver",
          "type": "address"
        }
      ],
      "name": "ERC721InvalidReceiver",
      "type": "error"
    },
    {
      "inputs": [
        {
          "internalType": "address",
          "name": "sender",
          "type": "address"
        }
      ],
      "name": "ERC721InvalidSender",
      "type": "error"
    },
    {
      "inputs": [
        {
          "internalType": "uint256",
          "name": "tokenId",
          "type": "uint256"
        }
      ],
      "name": "ERC721NonexistentToken",
      "type": "error"
    },
    {
      "anonymous": false,
      "inputs": [
        {
          "indexed": true,
          "internalType": "address",
          "name": "owner",
          "type": "address"
        },
        {
          "indexed": true,
          "internalType": "address",
          "name": "approved",
          "type": "address"
        },
        {
          "indexed": true,
          "internalType": "uint256",
          "name": "tokenId",
          "type": "uint256"
        }
      ],
      "name": "Approval",
      "type": "event"
    },
    {
      "anonymous": false,
      "inputs": [
        {
          "indexed": true,
          "internalType": "address",
          "name": "owner",
          "type": "address"
        },
        {
          "indexed": true,
          "internalType": "address",
          "name": "operator",
          "type": "address"
        },
        {
          "indexed": false,
          "internalType": "bool",
          "name": "approved",
          "type": "bool"
        }
      ],
      "name": "ApprovalForAll",
      "type": "event"
    },
    {
      "anonymous": false,
      "inputs": [
        {
          "indexed": false,
          "internalType": "uint256",
          "name": "carTokenId",
          "type": "uint256"
        },
        {
          "indexed": false,
          "internalType": "address",
          "name": "borrower",
          "type": "address"
        },
        {
          "indexed": false,
          "internalType": "uint256",
          "name": "startTime",
          "type": "uint256"
        },
        {
          "indexed": false,
          "internalType": "uint256",
          "name": "duration",
          "type": "uint256"
        }
      ],
      "name": "CarBorrowed",
      "type": "event"
    },
    {
      "anonymous": false,
      "inputs": [
        {
          "indexed": false,
          "internalType": "uint256[]",
          "name": "",
          "type": "uint256[]"
        }
      ],
      "name": "GetAvailableCars",
      "type": "event"
    },
    {
      "anonymous": false,
      "inputs": [
        {
          "indexed": false,
          "internalType": "uint256[]",
          "name": "",
          "type": "uint256[]"
        }
      ],
      "name": "GetMyCarList",
      "type": "event"
    },
    {
      "anonymous": false,
      "inputs": [
        {
          "indexed": false,
          "internalType": "uint256",
          "name": "carTokenId",
          "type": "uint256"
        }
      ],
      "name": "MintCar",
      "type": "event"
    },
    {
      "anonymous": false,
      "inputs": [
        {
          "indexed": true,
          "internalType": "address",
          "name": "from",
          "type": "address"
        },
        {
          "indexed": true,
          "internalType": "address",
          "name": "to",
          "type": "address"
        },
        {
          "indexed": true,
          "internalType": "uint256",
          "name": "tokenId",
          "type": "uint256"
        }
      ],
      "name": "Transfer",
      "type": "event"
    },
    {
      "anonymous": false,
      "inputs": [
        {
          "indexed": true,
          "internalType": "uint256",
          "name": "tokenId",
          "type": "uint256"
        },
        {
          "indexed": true,
          "internalType": "address",
          "name": "user",
          "type": "address"
        },
        {
          "indexed": false,
          "internalType": "uint64",
          "name": "expires",
          "type": "uint64"
        }
      ],
      "name": "UpdateUser",
      "type": "event"
    },
    {
      "inputs": [
        {
          "internalType": "address",
          "name": "to",
          "type": "address"
        },
        {
          "internalType": "uint256",
          "name": "tokenId",
          "type": "uint256"
        }
      ],
      "name": "approve",
      "outputs": [],
      "stateMutability": "nonpayable",
      "type": "function"
    },
    {
      "inputs": [
        {
          "internalType": "address",
          "name": "owner",
          "type": "address"
        }
      ],
      "name": "balanceOf",
      "outputs": [
        {
          "internalType": "uint256",
          "name": "",
          "type": "uint256"
        }
      ],
      "stateMutability": "view",
      "type": "function"
    },
    {
      "inputs": [
        {
          "internalType": "uint256",
          "name": "carId",
          "type": "uint256"
        },
        {
          "internalType": "uint256",
          "name": "hour",
          "type": "uint256"
        }
      ],
      "name": "carBorrowed",
      "outputs": [],
      "stateMutability": "nonpayable",
      "type": "function"
    },
    {
      "inputs": [
        {
          "internalType": "uint256",
          "name": "",
          "type": "uint256"
        }
      ],
      "name": "cars",
      "outputs": [
        {
          "internalType": "address",
          "name": "owner",
          "type": "address"
        },
        {
          "internalType": "address",
          "name": "borrower",
          "type": "address"
        },
        {
          "internalType": "uint256",
          "name": "borrowUntil",
          "type": "uint256"
        }
      ],
      "stateMutability": "view",
      "type": "function"
    },
    {
      "inputs": [
        {
          "internalType": "uint256",
          "name": "tokenId",
          "type": "uint256"
        }
      ],
      "name": "getApproved",
      "outputs": [
        {
          "internalType": "address",
          "name": "",
          "type": "address"
        }
      ],
      "stateMutability": "view",
      "type": "function"
    },
    {
      "inputs": [],
      "name": "getAvailableCars",
      "outputs": [
        {
          "internalType": "uint256[]",
          "name": "availableCars",
          "type": "uint256[]"
        }
      ],
      "stateMutability": "nonpayable",
      "type": "function"
    },
    {
      "inputs": [
        {
          "internalType": "uint256",
          "name": "carId",
          "type": "uint256"
        }
      ],
      "name": "getCarBorrower",
      "outputs": [
        {
          "internalType": "address",
          "name": "borrower",
          "type": "address"
        }
      ],
      "stateMutability": "view",
      "type": "function"
    },
    {
      "inputs": [
        {
          "internalType": "uint256",
          "name": "carId",
          "type": "uint256"
        }
      ],
      "name": "getCarOwner",
      "outputs": [
        {
          "internalType": "address",
          "name": "owner",
          "type": "address"
        }
      ],
      "stateMutability": "view",
      "type": "function"
    },
    {
      "inputs": [],
      "name": "getManager",
      "outputs": [
        {
          "internalType": "address",
          "name": "",
          "type": "address"
        }
      ],
      "stateMutability": "view",
      "type": "function"
    },
    {
      "inputs": [],
      "name": "getMyCarList",
      "outputs": [
        {
          "internalType": "uint256[]",
          "name": "myCarList",
          "type": "uint256[]"
        }
      ],
      "stateMutability": "nonpayable",
      "type": "function"
    },
    {
      "inputs": [],
      "name": "getPerCarCost",
      "outputs": [
        {
          "internalType": "uint256",
          "name": "",
          "type": "uint256"
        }
      ],
      "stateMutability": "view",
      "type": "function"
    },
    {
      "inputs": [],
      "name": "getPerHourCost",
      "outputs": [
        {
          "internalType": "uint256",
          "name": "",
          "type": "uint256"
        }
      ],
      "stateMutability": "view",
      "type": "function"
    },
    {
      "inputs": [
        {
          "internalType": "address",
          "name": "owner",
          "type": "address"
        },
        {
          "internalType": "address",
          "name": "operator",
          "type": "address"
        }
      ],
      "name": "isApprovedForAll",
      "outputs": [
        {
          "internalType": "bool",
          "name": "",
          "type": "bool"
        }
      ],
      "stateMutability": "view",
      "type": "function"
    },
    {
      "inputs": [],
      "name": "manager",
      "outputs": [
        {
          "internalType": "address",
          "name": "",
          "type": "address"
        }
      ],
      "stateMutability": "view",
      "type": "function"
    },
    {
      "inputs": [
        {
          "internalType": "uint256",
          "name": "CarId",
          "type": "uint256"
        },
        {
          "internalType": "address",
          "name": "to",
          "type": "address"
        }
      ],
      "name": "mint",
      "outputs": [],
      "stateMutability": "nonpayable",
      "type": "function"
    },
    {
      "inputs": [],
      "name": "mintCar",
      "outputs": [],
      "stateMutability": "payable",
      "type": "function"
    },
    {
      "inputs": [],
      "name": "myERC20",
      "outputs": [
        {
          "internalType": "contract MyERC20",
          "name": "",
          "type": "address"
        }
      ],
      "stateMutability": "view",
      "type": "function"
    },
    {
      "inputs": [],
      "name": "name",
      "outputs": [
        {
          "internalType": "string",
          "name": "",
          "type": "string"
        }
      ],
      "stateMutability": "view",
      "type": "function"
    },
    {
      "inputs": [],
      "name": "nextCarId",
      "outputs": [
        {
          "internalType": "uint256",
          "name": "",
          "type": "uint256"
        }
      ],
      "stateMutability": "view",
      "type": "function"
    },
    {
      "inputs": [
        {
          "internalType": "address",
          "name": "",
          "type": "address"
        },
        {
          "internalType": "uint256",
          "name": "",
          "type": "uint256"
        }
      ],
      "name": "ownerCarList",
      "outputs": [
        {
          "internalType": "uint256",
          "name": "",
          "type": "uint256"
        }
      ],
      "stateMutability": "view",
      "type": "function"
    },
    {
      "inputs": [
        {
          "internalType": "uint256",
          "name": "tokenId",
          "type": "uint256"
        }
      ],
      "name": "ownerOf",
      "outputs": [
        {
          "internalType": "address",
          "name": "",
          "type": "address"
        }
      ],
      "stateMutability": "view",
      "type": "function"
    },
    {
      "inputs": [],
      "name": "perCarCost",
      "outputs": [
        {
          "internalType": "uint256",
          "name": "",
          "type": "uint256"
        }
      ],
      "stateMutability": "view",
      "type": "function"
    },
    {
      "inputs": [],
      "name": "perHourCost",
      "outputs": [
        {
          "internalType": "uint256",
          "name": "",
          "type": "uint256"
        }
      ],
      "stateMutability": "view",
      "type": "function"
    },
    {
      "inputs": [
        {
          "internalType": "address",
          "name": "from",
          "type": "address"
        },
        {
          "internalType": "address",
          "name": "to",
          "type": "address"
        },
        {
          "internalType": "uint256",
          "name": "tokenId",
          "type": "uint256"
        }
      ],
      "name": "safeTransferFrom",
      "outputs": [],
      "stateMutability": "nonpayable",
      "type": "function"
    },
    {
      "inputs": [
        {
          "internalType": "address",
          "name": "from",
          "type": "address"
        },
        {
          "internalType": "address",
          "name": "to",
          "type": "address"
        },
        {
          "internalType": "uint256",
          "name": "tokenId",
          "type": "uint256"
        },
        {
          "internalType": "bytes",
          "name": "data",
          "type": "bytes"
        }
      ],
      "name": "safeTransferFrom",
      "outputs": [],
      "stateMutability": "nonpayable",
      "type": "function"
    },
    {
      "inputs": [
        {
          "internalType": "address",
          "name": "operator",
          "type": "address"
        },
        {
          "internalType": "bool",
          "name": "approved",
          "type": "bool"
        }
      ],
      "name": "setApprovalForAll",
      "outputs": [],
      "stateMutability": "nonpayable",
      "type": "function"
    },
    {
      "inputs": [
        {
          "internalType": "uint256",
          "name": "tokenId",
          "type": "uint256"
        },
        {
          "internalType": "address",
          "name": "user",
          "type": "address"
        },
        {
          "internalType": "uint64",
          "name": "expires",
          "type": "uint64"
        }
      ],
      "name": "setUser",
      "outputs": [],
      "stateMutability": "nonpayable",
      "type": "function"
    },
    {
      "inputs": [
        {
          "internalType": "bytes4",
          "name": "interfaceId",
          "type": "bytes4"
        }
      ],
      "name": "supportsInterface",
      "outputs": [
        {
          "internalType": "bool",
          "name": "",
          "type": "bool"
        }
      ],
      "stateMutability": "view",
      "type": "function"
    },
    {
      "inputs": [],
      "name": "symbol",
      "outputs": [
        {
          "internalType": "string",
          "name": "",
          "type": "string"
        }
      ],
      "stateMutability": "view",
      "type": "function"
    },
    {
      "inputs": [
        {
          "internalType": "uint256",
          "name": "tokenId",
          "type": "uint256"
        }
      ],
      "name": "tokenURI",
      "outputs": [
        {
          "internalType": "string",
          "name": "",
          "type": "string"
        }
      ],
      "stateMutability": "view",
      "type": "function"
    },
    {
      "inputs": [
        {
          "internalType": "address",
          "name": "from",
          "type": "address"
        },
        {
          "internalType": "address",
          "name": "to",
          "type": "address"
        },
        {
          "internalType": "uint256",
          "name": "tokenId",
          "type": "uint256"
        }
      ],
      "name": "transferFrom",
      "outputs": [],
      "stateMutability": "nonpayable",
      "type": "function"
    },
    {
      "inputs": [
        {
          "internalType": "uint256",
          "name": "tokenId",
          "type": "uint256"
        }
      ],
      "name": "userExpires",
      "outputs": [
        {
          "internalType": "uint256",
          "name": "",
          "type": "uint256"
        }
      ],
      "stateMutability": "view",
      "type": "function"
    },
    {
      "inputs": [
        {
          "internalType": "uint256",
          "name": "tokenId",
          "type": "uint256"
        }
      ],
      "name": "userOf",
      "outputs": [
        {
          "internalType": "address",
          "name": "",
          "type": "address"
        }
      ],
      "stateMutability": "view",
      "type": "function"
    }
  ],
  "bytecode": "0x6080604052600060075560016008553480156200001b57600080fd5b506040518060400160405280600781526020017f4f54544f4e4654000000000000000000000000000000000000000000000000008152506040518060400160405280600d81526020017f4f54544f4e465453796d626f6c00000000000000000000000000000000000000815250818181600090816200009b9190620003f8565b508060019081620000ad9190620003f8565b5050505050604051620000c09062000170565b620000cb9062000590565b604051809103906000f080158015620000e8573d6000803e3d6000fd5b50600c60006101000a81548173ffffffffffffffffffffffffffffffffffffffff021916908373ffffffffffffffffffffffffffffffffffffffff16021790555033600960006101000a81548173ffffffffffffffffffffffffffffffffffffffff021916908373ffffffffffffffffffffffffffffffffffffffff160217905550620005c7565b6116388062003a6783390190565b600081519050919050565b7f4e487b7100000000000000000000000000000000000000000000000000000000600052604160045260246000fd5b7f4e487b7100000000000000000000000000000000000000000000000000000000600052602260045260246000fd5b600060028204905060018216806200020057607f821691505b602082108103620002165762000215620001b8565b5b50919050565b60008190508160005260206000209050919050565b60006020601f8301049050919050565b600082821b905092915050565b600060088302620002807fffffffffffffffffffffffffffffffffffffffffffffffffffffffffffffffff8262000241565b6200028c868362000241565b95508019841693508086168417925050509392505050565b6000819050919050565b6000819050919050565b6000620002d9620002d3620002cd84620002a4565b620002ae565b620002a4565b9050919050565b6000819050919050565b620002f583620002b8565b6200030d6200030482620002e0565b8484546200024e565b825550505050565b600090565b6200032462000315565b62000331818484620002ea565b505050565b5b8181101562000359576200034d6000826200031a565b60018101905062000337565b5050565b601f821115620003a85762000372816200021c565b6200037d8462000231565b810160208510156200038d578190505b620003a56200039c8562000231565b83018262000336565b50505b505050565b600082821c905092915050565b6000620003cd60001984600802620003ad565b1980831691505092915050565b6000620003e88383620003ba565b9150826002028217905092915050565b62000403826200017e565b67ffffffffffffffff8111156200041f576200041e62000189565b5b6200042b8254620001e7565b620004388282856200035d565b600060209050601f8311600181146200047057600084156200045b578287015190505b620004678582620003da565b865550620004d7565b601f19841662000480866200021c565b60005b82811015620004aa5784890151825560018201915060208501945060208101905062000483565b86831015620004ca5784890151620004c6601f891682620003ba565b8355505b6001600288020188555050505b505050505050565b600082825260208201905092915050565b7f4f54544f546f6b656e0000000000000000000000000000000000000000000000600082015250565b600062000528600983620004df565b91506200053582620004f0565b602082019050919050565b7f4f54544f546f6b656e53796d626f6c0000000000000000000000000000000000600082015250565b600062000578600f83620004df565b9150620005858262000540565b602082019050919050565b60006040820190508181036000830152620005ab8162000519565b90508181036020830152620005c08162000569565b9050919050565b61349080620005d76000396000f3fe6080604052600436106101ee5760003560e01c806370a082311161010d578063c3c70591116100a0578063d64966911161006f578063d64966911461071a578063db1506d914610757578063e030565e14610782578063e985e9c5146107ab578063f7746e36146107e8576101ee565b8063c3c705911461064a578063c87b56dd14610687578063cc66b36e146106c4578063d5009584146106ef576101ee565b806395d89b41116100dc57806395d89b4114610590578063a22cb465146105bb578063b88d4fde146105e4578063c2f1f14a1461060d576101ee565b806370a08231146104c25780638c8bfa06146104ff5780638fc88c481461052a57806394bf804d14610567576101ee565b806338301663116101855780634795d1c9116101545780634795d1c914610404578063481c6a751461042f5780636352211e1461045a5780636d3739c414610497576101ee565b8063383016631461037d5780633a7bb4b2146103a657806342842e0e146103b0578063433b8046146103d9576101ee565b8063081812fc116101c1578063081812fc146102b1578063095ea7b3146102ee5780631db8bd441461031757806323b872dd14610354576101ee565b8063018ddf62146101f357806301ffc9a71461021e57806306fdde031461025b578063075b41fd14610286575b600080fd5b3480156101ff57600080fd5b50610208610827565b604051610215919061265c565b60405180910390f35b34801561022a57600080fd5b50610245600480360381019061024091906126e3565b610830565b604051610252919061272b565b60405180910390f35b34801561026757600080fd5b506102706108aa565b60405161027d91906127d6565b60405180910390f35b34801561029257600080fd5b5061029b61093c565b6040516102a8919061265c565b60405180910390f35b3480156102bd57600080fd5b506102d860048036038101906102d39190612824565b610941565b6040516102e59190612892565b60405180910390f35b3480156102fa57600080fd5b50610315600480360381019061031091906128d9565b61095d565b005b34801561032357600080fd5b5061033e60048036038101906103399190612824565b610973565b60405161034b9190612892565b60405180910390f35b34801561036057600080fd5b5061037b60048036038101906103769190612919565b6109c9565b005b34801561038957600080fd5b506103a4600480360381019061039f919061296c565b610acb565b005b6103ae610e1c565b005b3480156103bc57600080fd5b506103d760048036038101906103d29190612919565b611013565b005b3480156103e557600080fd5b506103ee611033565b6040516103fb9190612a6a565b60405180910390f35b34801561041057600080fd5b50610419611170565b6040516104269190612a6a565b60405180910390f35b34801561043b57600080fd5b5061044461123c565b6040516104519190612892565b60405180910390f35b34801561046657600080fd5b50610481600480360381019061047c9190612824565b611262565b60405161048e9190612892565b60405180910390f35b3480156104a357600080fd5b506104ac611274565b6040516104b99190612aeb565b60405180910390f35b3480156104ce57600080fd5b506104e960048036038101906104e49190612b06565b61129a565b6040516104f6919061265c565b60405180910390f35b34801561050b57600080fd5b50610514611354565b604051610521919061265c565b60405180910390f35b34801561053657600080fd5b50610551600480360381019061054c9190612824565b61135a565b60405161055e919061265c565b60405180910390f35b34801561057357600080fd5b5061058e60048036038101906105899190612b33565b611398565b005b34801561059c57600080fd5b506105a56113a6565b6040516105b291906127d6565b60405180910390f35b3480156105c757600080fd5b506105e260048036038101906105dd9190612b9f565b611438565b005b3480156105f057600080fd5b5061060b60048036038101906106069190612d14565b61144e565b005b34801561061957600080fd5b50610634600480360381019061062f9190612824565b61146b565b6040516106419190612892565b60405180910390f35b34801561065657600080fd5b50610671600480360381019061066c9190612824565b6114f0565b60405161067e9190612892565b60405180910390f35b34801561069357600080fd5b506106ae60048036038101906106a99190612824565b611574565b6040516106bb91906127d6565b60405180910390f35b3480156106d057600080fd5b506106d96115dd565b6040516106e6919061265c565b60405180910390f35b3480156106fb57600080fd5b506107046115e7565b6040516107119190612892565b60405180910390f35b34801561072657600080fd5b50610741600480360381019061073c91906128d9565b611611565b60405161074e919061265c565b60405180910390f35b34801561076357600080fd5b5061076c611642565b604051610779919061265c565b60405180910390f35b34801561078e57600080fd5b506107a960048036038101906107a49190612dd7565b611648565b005b3480156107b757600080fd5b506107d260048036038101906107cd9190612e2a565b611722565b6040516107df919061272b565b60405180910390f35b3480156107f457600080fd5b5061080f600480360381019061080a9190612824565b6117b6565b60405161081e93929190612e6a565b60405180910390f35b6000600a905090565b60007fad092b5c000000000000000000000000000000000000000000000000000000007bffffffffffffffffffffffffffffffffffffffffffffffffffffffff1916827bffffffffffffffffffffffffffffffffffffffffffffffffffffffff191614806108a357506108a282611820565b5b9050919050565b6060600080546108b990612ed0565b80601f01602080910402602001604051908101604052809291908181526020018280546108e590612ed0565b80156109325780601f1061090757610100808354040283529160200191610932565b820191906000526020600020905b81548152906001019060200180831161091557829003601f168201915b5050505050905090565b600a81565b600061094c82611902565b506109568261198a565b9050919050565b61096f828261096a6119c7565b6119cf565b5050565b600060075482106109b9576040517f08c379a00000000000000000000000000000000000000000000000000000000081526004016109b090612f4d565b60405180910390fd5b6109c28261146b565b9050919050565b600073ffffffffffffffffffffffffffffffffffffffff168273ffffffffffffffffffffffffffffffffffffffff1603610a3b5760006040517f64a0ae92000000000000000000000000000000000000000000000000000000008152600401610a329190612892565b60405180910390fd5b6000610a4f8383610a4a6119c7565b6119e1565b90508373ffffffffffffffffffffffffffffffffffffffff168173ffffffffffffffffffffffffffffffffffffffff1614610ac5578382826040517f64283d7b000000000000000000000000000000000000000000000000000000008152600401610abc93929190612f6d565b60405180910390fd5b50505050565b6000600a82610ada9190612fd3565b90506007548310610b20576040517f08c379a0000000000000000000000000000000000000000000000000000000008152600401610b1790612f4d565b60405180910390fd5b600a6000848152602001908152602001600020600201544211610b78576040517f08c379a0000000000000000000000000000000000000000000000000000000008152600401610b6f90613061565b60405180910390fd5b600c60009054906101000a900473ffffffffffffffffffffffffffffffffffffffff1673ffffffffffffffffffffffffffffffffffffffff166370a08231336040518263ffffffff1660e01b8152600401610bd39190612892565b602060405180830381865afa158015610bf0573d6000803e3d6000fd5b505050506040513d601f19601f82011682018060405250810190610c149190613096565b811115610c56576040517f08c379a0000000000000000000000000000000000000000000000000000000008152600401610c4d9061310f565b60405180910390fd5b610c798333610e1085610c699190612fd3565b42610c74919061312f565b611648565b610e1082610c879190612fd3565b42610c92919061312f565b600a60008581526020019081526020016000206002018190555033600a600085815260200190815260200160002060010160006101000a81548173ffffffffffffffffffffffffffffffffffffffff021916908373ffffffffffffffffffffffffffffffffffffffff160217905550600c60009054906101000a900473ffffffffffffffffffffffffffffffffffffffff1673ffffffffffffffffffffffffffffffffffffffff166323b872dd33600a600087815260200190815260200160002060000160009054906101000a900473ffffffffffffffffffffffffffffffffffffffff16846040518463ffffffff1660e01b8152600401610d9693929190612e6a565b6020604051808303816000875af1158015610db5573d6000803e3d6000fd5b505050506040513d601f19601f82011682018060405250810190610dd99190613178565b507f8879d78706834dc00d82232992f71250fab6a1f70b08260968253950083d88cd83334285604051610e0f94939291906131a5565b60405180910390a1505050565b600854341015610e61576040517f08c379a0000000000000000000000000000000000000000000000000000000008152600401610e589061310f565b60405180910390fd5b610e6d60075433611398565b33600a6000600754815260200190815260200160002060000160006101000a81548173ffffffffffffffffffffffffffffffffffffffff021916908373ffffffffffffffffffffffffffffffffffffffff16021790555042600a6000600754815260200190815260200160002060020181905550600b60003373ffffffffffffffffffffffffffffffffffffffff1673ffffffffffffffffffffffffffffffffffffffff168152602001908152602001600020600754908060018154018082558091505060019003906000526020600020016000909190919091505560076000815480929190610f5c906131ea565b9190505550600960009054906101000a900473ffffffffffffffffffffffffffffffffffffffff1673ffffffffffffffffffffffffffffffffffffffff166108fc6008549081150290604051600060405180830381858888f19350505050158015610fcb573d6000803e3d6000fd5b507fce1f40a1acc8d5da4915d8569bc4cb8c210b020e06c0a5153026585c96f75d006001600754610ffc9190613232565b604051611009919061265c565b60405180910390a1565b61102e8383836040518060200160405280600081525061144e565b505050565b60606000805b60075481101561108357600a60008281526020019081526020016000206002015442111561107057818061106c906131ea565b9250505b808061107b906131ea565b915050611039565b5060008167ffffffffffffffff8111156110a05761109f612be9565b5b6040519080825280602002602001820160405280156110ce5781602001602082028036833780820191505090505b5090506000805b8381101561112f57600a60008281526020019081526020016000206002015442111561111c578083838151811061110f5761110e613266565b5b6020026020010181815250505b8080611127906131ea565b9150506110d5565b508193507f622b03fd33234b5a4c7b5d3357ea8a2552cb43fdf13a62ff91308bbff704af71846040516111629190612a6a565b60405180910390a150505090565b6060600b60003373ffffffffffffffffffffffffffffffffffffffff1673ffffffffffffffffffffffffffffffffffffffff1681526020019081526020016000208054806020026020016040519081016040528092919081815260200182805480156111fb57602002820191906000526020600020905b8154815260200190600101908083116111e7575b505050505090507f226c6e3b074540c8a9911056a34c68f0167fd281fd2d828aad764225418f4182816040516112319190612a6a565b60405180910390a190565b600960009054906101000a900473ffffffffffffffffffffffffffffffffffffffff1681565b600061126d82611902565b9050919050565b600c60009054906101000a900473ffffffffffffffffffffffffffffffffffffffff1681565b60008073ffffffffffffffffffffffffffffffffffffffff168273ffffffffffffffffffffffffffffffffffffffff160361130d5760006040517f89c62b640000000000000000000000000000000000000000000000000000000081526004016113049190612892565b60405180910390fd5b600360008373ffffffffffffffffffffffffffffffffffffffff1673ffffffffffffffffffffffffffffffffffffffff168152602001908152602001600020549050919050565b60075481565b60006006600083815260200190815260200160002060000160149054906101000a900467ffffffffffffffff1667ffffffffffffffff169050919050565b6113a28183611bfb565b5050565b6060600180546113b590612ed0565b80601f01602080910402602001604051908101604052809291908181526020018280546113e190612ed0565b801561142e5780601f106114035761010080835404028352916020019161142e565b820191906000526020600020905b81548152906001019060200180831161141157829003601f168201915b5050505050905090565b61144a6114436119c7565b8383611cf4565b5050565b6114598484846109c9565b61146584848484611e63565b50505050565b6000426006600084815260200190815260200160002060000160149054906101000a900467ffffffffffffffff1667ffffffffffffffff16106114e6576006600083815260200190815260200160002060000160009054906101000a900473ffffffffffffffffffffffffffffffffffffffff1690506114eb565b600090505b919050565b60006007548210611536576040517f08c379a000000000000000000000000000000000000000000000000000000000815260040161152d90612f4d565b60405180910390fd5b600a600083815260200190815260200160002060000160009054906101000a900473ffffffffffffffffffffffffffffffffffffffff169050919050565b606061157f82611902565b50600061158a61201a565b905060008151116115aa57604051806020016040528060008152506115d5565b806115b484612031565b6040516020016115c59291906132d1565b6040516020818303038152906040525b915050919050565b6000600854905090565b6000600960009054906101000a900473ffffffffffffffffffffffffffffffffffffffff16905090565b600b602052816000526040600020818154811061162d57600080fd5b90600052602060002001600091509150505481565b60085481565b6000600660008581526020019081526020016000209050828160000160006101000a81548173ffffffffffffffffffffffffffffffffffffffff021916908373ffffffffffffffffffffffffffffffffffffffff160217905550818160000160146101000a81548167ffffffffffffffff021916908367ffffffffffffffff1602179055508273ffffffffffffffffffffffffffffffffffffffff16847f4e06b4e7000e659094299b3533b47b6aa8ad048e95e872d23d1f4ee55af89cfe846040516117149190613304565b60405180910390a350505050565b6000600560008473ffffffffffffffffffffffffffffffffffffffff1673ffffffffffffffffffffffffffffffffffffffff16815260200190815260200160002060008373ffffffffffffffffffffffffffffffffffffffff1673ffffffffffffffffffffffffffffffffffffffff16815260200190815260200160002060009054906101000a900460ff16905092915050565b600a6020528060005260406000206000915090508060000160009054906101000a900473ffffffffffffffffffffffffffffffffffffffff16908060010160009054906101000a900473ffffffffffffffffffffffffffffffffffffffff16908060020154905083565b60007f80ac58cd000000000000000000000000000000000000000000000000000000007bffffffffffffffffffffffffffffffffffffffffffffffffffffffff1916827bffffffffffffffffffffffffffffffffffffffffffffffffffffffff191614806118eb57507f5b5e139f000000000000000000000000000000000000000000000000000000007bffffffffffffffffffffffffffffffffffffffffffffffffffffffff1916827bffffffffffffffffffffffffffffffffffffffffffffffffffffffff1916145b806118fb57506118fa826120ff565b5b9050919050565b60008061190e83612169565b9050600073ffffffffffffffffffffffffffffffffffffffff168173ffffffffffffffffffffffffffffffffffffffff160361198157826040517f7e273289000000000000000000000000000000000000000000000000000000008152600401611978919061265c565b60405180910390fd5b80915050919050565b60006004600083815260200190815260200160002060009054906101000a900473ffffffffffffffffffffffffffffffffffffffff169050919050565b600033905090565b6119dc83838360016121a6565b505050565b6000806119ed84612169565b9050600073ffffffffffffffffffffffffffffffffffffffff168373ffffffffffffffffffffffffffffffffffffffff1614611a2f57611a2e81848661236b565b5b600073ffffffffffffffffffffffffffffffffffffffff168173ffffffffffffffffffffffffffffffffffffffff1614611ac057611a716000856000806121a6565b6001600360008373ffffffffffffffffffffffffffffffffffffffff1673ffffffffffffffffffffffffffffffffffffffff168152602001908152602001600020600082825403925050819055505b600073ffffffffffffffffffffffffffffffffffffffff168573ffffffffffffffffffffffffffffffffffffffff1614611b43576001600360008773ffffffffffffffffffffffffffffffffffffffff1673ffffffffffffffffffffffffffffffffffffffff168152602001908152602001600020600082825401925050819055505b846002600086815260200190815260200160002060006101000a81548173ffffffffffffffffffffffffffffffffffffffff021916908373ffffffffffffffffffffffffffffffffffffffff160217905550838573ffffffffffffffffffffffffffffffffffffffff168273ffffffffffffffffffffffffffffffffffffffff167fddf252ad1be2c89b69c2b068fc378daa952ba7f163c4a11628f55a4df523b3ef60405160405180910390a4809150509392505050565b600073ffffffffffffffffffffffffffffffffffffffff168273ffffffffffffffffffffffffffffffffffffffff1603611c6d5760006040517f64a0ae92000000000000000000000000000000000000000000000000000000008152600401611c649190612892565b60405180910390fd5b6000611c7b838360006119e1565b9050600073ffffffffffffffffffffffffffffffffffffffff168173ffffffffffffffffffffffffffffffffffffffff1614611cef5760006040517f73c6ac6e000000000000000000000000000000000000000000000000000000008152600401611ce69190612892565b60405180910390fd5b505050565b600073ffffffffffffffffffffffffffffffffffffffff168273ffffffffffffffffffffffffffffffffffffffff1603611d6557816040517f5b08ba18000000000000000000000000000000000000000000000000000000008152600401611d5c9190612892565b60405180910390fd5b80600560008573ffffffffffffffffffffffffffffffffffffffff1673ffffffffffffffffffffffffffffffffffffffff16815260200190815260200160002060008473ffffffffffffffffffffffffffffffffffffffff1673ffffffffffffffffffffffffffffffffffffffff16815260200190815260200160002060006101000a81548160ff0219169083151502179055508173ffffffffffffffffffffffffffffffffffffffff168373ffffffffffffffffffffffffffffffffffffffff167f17307eab39ab6107e8899845ad3d59bd9653f200f220920489ca2b5937696c3183604051611e56919061272b565b60405180910390a3505050565b60008373ffffffffffffffffffffffffffffffffffffffff163b1115612014578273ffffffffffffffffffffffffffffffffffffffff1663150b7a02611ea76119c7565b8685856040518563ffffffff1660e01b8152600401611ec99493929190613374565b6020604051808303816000875af1925050508015611f0557506040513d601f19601f82011682018060405250810190611f0291906133d5565b60015b611f89573d8060008114611f35576040519150601f19603f3d011682016040523d82523d6000602084013e611f3a565b606091505b506000815103611f8157836040517f64a0ae92000000000000000000000000000000000000000000000000000000008152600401611f789190612892565b60405180910390fd5b805181602001fd5b63150b7a0260e01b7bffffffffffffffffffffffffffffffffffffffffffffffffffffffff1916817bffffffffffffffffffffffffffffffffffffffffffffffffffffffff19161461201257836040517f64a0ae920000000000000000000000000000000000000000000000000000000081526004016120099190612892565b60405180910390fd5b505b50505050565b606060405180602001604052806000815250905090565b6060600060016120408461242f565b01905060008167ffffffffffffffff81111561205f5761205e612be9565b5b6040519080825280601f01601f1916602001820160405280156120915781602001600182028036833780820191505090505b509050600082602001820190505b6001156120f4578080600190039150507f3031323334353637383961626364656600000000000000000000000000000000600a86061a8153600a85816120e8576120e7613402565b5b0494506000850361209f575b819350505050919050565b60007f01ffc9a7000000000000000000000000000000000000000000000000000000007bffffffffffffffffffffffffffffffffffffffffffffffffffffffff1916827bffffffffffffffffffffffffffffffffffffffffffffffffffffffff1916149050919050565b60006002600083815260200190815260200160002060009054906101000a900473ffffffffffffffffffffffffffffffffffffffff169050919050565b80806121df5750600073ffffffffffffffffffffffffffffffffffffffff168273ffffffffffffffffffffffffffffffffffffffff1614155b156123135760006121ef84611902565b9050600073ffffffffffffffffffffffffffffffffffffffff168373ffffffffffffffffffffffffffffffffffffffff161415801561225a57508273ffffffffffffffffffffffffffffffffffffffff168173ffffffffffffffffffffffffffffffffffffffff1614155b801561226d575061226b8184611722565b155b156122af57826040517fa9fbf51f0000000000000000000000000000000000000000000000000000000081526004016122a69190612892565b60405180910390fd5b811561231157838573ffffffffffffffffffffffffffffffffffffffff168273ffffffffffffffffffffffffffffffffffffffff167f8c5be1e5ebec7d5bd14f71427d1e84f3dd0314c0f7b2291e5b200ac8c7c3b92560405160405180910390a45b505b836004600085815260200190815260200160002060006101000a81548173ffffffffffffffffffffffffffffffffffffffff021916908373ffffffffffffffffffffffffffffffffffffffff16021790555050505050565b612376838383612582565b61242a57600073ffffffffffffffffffffffffffffffffffffffff168373ffffffffffffffffffffffffffffffffffffffff16036123eb57806040517f7e2732890000000000000000000000000000000000000000000000000000000081526004016123e2919061265c565b60405180910390fd5b81816040517f177e802f000000000000000000000000000000000000000000000000000000008152600401612421929190613431565b60405180910390fd5b505050565b600080600090507a184f03e93ff9f4daa797ed6e38ed64bf6a1f010000000000000000831061248d577a184f03e93ff9f4daa797ed6e38ed64bf6a1f010000000000000000838161248357612482613402565b5b0492506040810190505b6d04ee2d6d415b85acef810000000083106124ca576d04ee2d6d415b85acef810000000083816124c0576124bf613402565b5b0492506020810190505b662386f26fc1000083106124f957662386f26fc1000083816124ef576124ee613402565b5b0492506010810190505b6305f5e1008310612522576305f5e100838161251857612517613402565b5b0492506008810190505b612710831061254757612710838161253d5761253c613402565b5b0492506004810190505b6064831061256a57606483816125605761255f613402565b5b0492506002810190505b600a8310612579576001810190505b80915050919050565b60008073ffffffffffffffffffffffffffffffffffffffff168373ffffffffffffffffffffffffffffffffffffffff161415801561263a57508273ffffffffffffffffffffffffffffffffffffffff168473ffffffffffffffffffffffffffffffffffffffff1614806125fb57506125fa8484611722565b5b8061263957508273ffffffffffffffffffffffffffffffffffffffff166126218361198a565b73ffffffffffffffffffffffffffffffffffffffff16145b5b90509392505050565b6000819050919050565b61265681612643565b82525050565b6000602082019050612671600083018461264d565b92915050565b6000604051905090565b600080fd5b600080fd5b60007fffffffff0000000000000000000000000000000000000000000000000000000082169050919050565b6126c08161268b565b81146126cb57600080fd5b50565b6000813590506126dd816126b7565b92915050565b6000602082840312156126f9576126f8612681565b5b6000612707848285016126ce565b91505092915050565b60008115159050919050565b61272581612710565b82525050565b6000602082019050612740600083018461271c565b92915050565b600081519050919050565b600082825260208201905092915050565b60005b83811015612780578082015181840152602081019050612765565b60008484015250505050565b6000601f19601f8301169050919050565b60006127a882612746565b6127b28185612751565b93506127c2818560208601612762565b6127cb8161278c565b840191505092915050565b600060208201905081810360008301526127f0818461279d565b905092915050565b61280181612643565b811461280c57600080fd5b50565b60008135905061281e816127f8565b92915050565b60006020828403121561283a57612839612681565b5b60006128488482850161280f565b91505092915050565b600073ffffffffffffffffffffffffffffffffffffffff82169050919050565b600061287c82612851565b9050919050565b61288c81612871565b82525050565b60006020820190506128a76000830184612883565b92915050565b6128b681612871565b81146128c157600080fd5b50565b6000813590506128d3816128ad565b92915050565b600080604083850312156128f0576128ef612681565b5b60006128fe858286016128c4565b925050602061290f8582860161280f565b9150509250929050565b60008060006060848603121561293257612931612681565b5b6000612940868287016128c4565b9350506020612951868287016128c4565b92505060406129628682870161280f565b9150509250925092565b6000806040838503121561298357612982612681565b5b60006129918582860161280f565b92505060206129a28582860161280f565b9150509250929050565b600081519050919050565b600082825260208201905092915050565b6000819050602082019050919050565b6129e181612643565b82525050565b60006129f383836129d8565b60208301905092915050565b6000602082019050919050565b6000612a17826129ac565b612a2181856129b7565b9350612a2c836129c8565b8060005b83811015612a5d578151612a4488826129e7565b9750612a4f836129ff565b925050600181019050612a30565b5085935050505092915050565b60006020820190508181036000830152612a848184612a0c565b905092915050565b6000819050919050565b6000612ab1612aac612aa784612851565b612a8c565b612851565b9050919050565b6000612ac382612a96565b9050919050565b6000612ad582612ab8565b9050919050565b612ae581612aca565b82525050565b6000602082019050612b006000830184612adc565b92915050565b600060208284031215612b1c57612b1b612681565b5b6000612b2a848285016128c4565b91505092915050565b60008060408385031215612b4a57612b49612681565b5b6000612b588582860161280f565b9250506020612b69858286016128c4565b9150509250929050565b612b7c81612710565b8114612b8757600080fd5b50565b600081359050612b9981612b73565b92915050565b60008060408385031215612bb657612bb5612681565b5b6000612bc4858286016128c4565b9250506020612bd585828601612b8a565b9150509250929050565b600080fd5b600080fd5b7f4e487b7100000000000000000000000000000000000000000000000000000000600052604160045260246000fd5b612c218261278c565b810181811067ffffffffffffffff82111715612c4057612c3f612be9565b5b80604052505050565b6000612c53612677565b9050612c5f8282612c18565b919050565b600067ffffffffffffffff821115612c7f57612c7e612be9565b5b612c888261278c565b9050602081019050919050565b82818337600083830152505050565b6000612cb7612cb284612c64565b612c49565b905082815260208101848484011115612cd357612cd2612be4565b5b612cde848285612c95565b509392505050565b600082601f830112612cfb57612cfa612bdf565b5b8135612d0b848260208601612ca4565b91505092915050565b60008060008060808587031215612d2e57612d2d612681565b5b6000612d3c878288016128c4565b9450506020612d4d878288016128c4565b9350506040612d5e8782880161280f565b925050606085013567ffffffffffffffff811115612d7f57612d7e612686565b5b612d8b87828801612ce6565b91505092959194509250565b600067ffffffffffffffff82169050919050565b612db481612d97565b8114612dbf57600080fd5b50565b600081359050612dd181612dab565b92915050565b600080600060608486031215612df057612def612681565b5b6000612dfe8682870161280f565b9350506020612e0f868287016128c4565b9250506040612e2086828701612dc2565b9150509250925092565b60008060408385031215612e4157612e40612681565b5b6000612e4f858286016128c4565b9250506020612e60858286016128c4565b9150509250929050565b6000606082019050612e7f6000830186612883565b612e8c6020830185612883565b612e99604083018461264d565b949350505050565b7f4e487b7100000000000000000000000000000000000000000000000000000000600052602260045260246000fd5b60006002820490506001821680612ee857607f821691505b602082108103612efb57612efa612ea1565b5b50919050565b7f4e6f207375636820636172210000000000000000000000000000000000000000600082015250565b6000612f37600c83612751565b9150612f4282612f01565b602082019050919050565b60006020820190508181036000830152612f6681612f2a565b9050919050565b6000606082019050612f826000830186612883565b612f8f602083018561264d565b612f9c6040830184612883565b949350505050565b7f4e487b7100000000000000000000000000000000000000000000000000000000600052601160045260246000fd5b6000612fde82612643565b9150612fe983612643565b9250828202612ff781612643565b9150828204841483151761300e5761300d612fa4565b5b5092915050565b7f4e6f7420617661696c61626c6500000000000000000000000000000000000000600082015250565b600061304b600d83612751565b915061305682613015565b602082019050919050565b6000602082019050818103600083015261307a8161303e565b9050919050565b600081519050613090816127f8565b92915050565b6000602082840312156130ac576130ab612681565b5b60006130ba84828501613081565b91505092915050565b7f6c61636b206f662066756e647300000000000000000000000000000000000000600082015250565b60006130f9600d83612751565b9150613104826130c3565b602082019050919050565b60006020820190508181036000830152613128816130ec565b9050919050565b600061313a82612643565b915061314583612643565b925082820190508082111561315d5761315c612fa4565b5b92915050565b60008151905061317281612b73565b92915050565b60006020828403121561318e5761318d612681565b5b600061319c84828501613163565b91505092915050565b60006080820190506131ba600083018761264d565b6131c76020830186612883565b6131d4604083018561264d565b6131e1606083018461264d565b95945050505050565b60006131f582612643565b91507fffffffffffffffffffffffffffffffffffffffffffffffffffffffffffffffff820361322757613226612fa4565b5b600182019050919050565b600061323d82612643565b915061324883612643565b92508282039050818111156132605761325f612fa4565b5b92915050565b7f4e487b7100000000000000000000000000000000000000000000000000000000600052603260045260246000fd5b600081905092915050565b60006132ab82612746565b6132b58185613295565b93506132c5818560208601612762565b80840191505092915050565b60006132dd82856132a0565b91506132e982846132a0565b91508190509392505050565b6132fe81612d97565b82525050565b600060208201905061331960008301846132f5565b92915050565b600081519050919050565b600082825260208201905092915050565b60006133468261331f565b613350818561332a565b9350613360818560208601612762565b6133698161278c565b840191505092915050565b60006080820190506133896000830187612883565b6133966020830186612883565b6133a3604083018561264d565b81810360608301526133b5818461333b565b905095945050505050565b6000815190506133cf816126b7565b92915050565b6000602082840312156133eb576133ea612681565b5b60006133f9848285016133c0565b91505092915050565b7f4e487b7100000000000000000000000000000000000000000000000000000000600052601260045260246000fd5b60006040820190506134466000830185612883565b613453602083018461264d565b939250505056fea26469706673582212208cee7a9bda49aabfbd476b35f8e69faa87e215d84a92e97073305455ad17588d64736f6c6343000814003360806040523480156200001157600080fd5b5060405162001638380380620016388339818101604052810190620000379190620001fa565b818181600390816200004a9190620004ca565b5080600490816200005c9190620004ca565b5050505050620005b1565b6000604051905090565b600080fd5b600080fd5b600080fd5b600080fd5b6000601f19601f8301169050919050565b7f4e487b7100000000000000000000000000000000000000000000000000000000600052604160045260246000fd5b620000d08262000085565b810181811067ffffffffffffffff82111715620000f257620000f162000096565b5b80604052505050565b60006200010762000067565b9050620001158282620000c5565b919050565b600067ffffffffffffffff82111562000138576200013762000096565b5b620001438262000085565b9050602081019050919050565b60005b838110156200017057808201518184015260208101905062000153565b60008484015250505050565b6000620001936200018d846200011a565b620000fb565b905082815260208101848484011115620001b257620001b162000080565b5b620001bf84828562000150565b509392505050565b600082601f830112620001df57620001de6200007b565b5b8151620001f18482602086016200017c565b91505092915050565b6000806040838503121562000214576200021362000071565b5b600083015167ffffffffffffffff81111562000235576200023462000076565b5b6200024385828601620001c7565b925050602083015167ffffffffffffffff81111562000267576200026662000076565b5b6200027585828601620001c7565b9150509250929050565b600081519050919050565b7f4e487b7100000000000000000000000000000000000000000000000000000000600052602260045260246000fd5b60006002820490506001821680620002d257607f821691505b602082108103620002e857620002e76200028a565b5b50919050565b60008190508160005260206000209050919050565b60006020601f8301049050919050565b600082821b905092915050565b600060088302620003527fffffffffffffffffffffffffffffffffffffffffffffffffffffffffffffffff8262000313565b6200035e868362000313565b95508019841693508086168417925050509392505050565b6000819050919050565b6000819050919050565b6000620003ab620003a56200039f8462000376565b62000380565b62000376565b9050919050565b6000819050919050565b620003c7836200038a565b620003df620003d682620003b2565b84845462000320565b825550505050565b600090565b620003f6620003e7565b62000403818484620003bc565b505050565b5b818110156200042b576200041f600082620003ec565b60018101905062000409565b5050565b601f8211156200047a576200044481620002ee565b6200044f8462000303565b810160208510156200045f578190505b620004776200046e8562000303565b83018262000408565b50505b505050565b600082821c905092915050565b60006200049f600019846008026200047f565b1980831691505092915050565b6000620004ba83836200048c565b9150826002028217905092915050565b620004d5826200027f565b67ffffffffffffffff811115620004f157620004f062000096565b5b620004fd8254620002b9565b6200050a8282856200042f565b600060209050601f8311600181146200054257600084156200052d578287015190505b620005398582620004ac565b865550620005a9565b601f1984166200055286620002ee565b60005b828110156200057c5784890151825560018201915060208501945060208101905062000555565b868310156200059c578489015162000598601f8916826200048c565b8355505b6001600288020188555050505b505050505050565b61107780620005c16000396000f3fe608060405234801561001057600080fd5b506004361061009e5760003560e01c80633884d635116100665780633884d6351461015d57806370a082311461016757806395d89b4114610197578063a9059cbb146101b5578063dd62ed3e146101e55761009e565b806306fdde03146100a3578063095ea7b3146100c157806318160ddd146100f157806323b872dd1461010f578063313ce5671461013f575b600080fd5b6100ab610215565b6040516100b89190610c39565b60405180910390f35b6100db60048036038101906100d69190610cf4565b6102a7565b6040516100e89190610d4f565b60405180910390f35b6100f96102ca565b6040516101069190610d79565b60405180910390f35b61012960048036038101906101249190610d94565b6102d4565b6040516101369190610d4f565b60405180910390f35b610147610303565b6040516101549190610e03565b60405180910390f35b61016561030c565b005b610181600480360381019061017c9190610e1e565b610405565b60405161018e9190610d79565b60405180910390f35b61019f61044d565b6040516101ac9190610c39565b60405180910390f35b6101cf60048036038101906101ca9190610cf4565b6104df565b6040516101dc9190610d4f565b60405180910390f35b6101ff60048036038101906101fa9190610e4b565b610502565b60405161020c9190610d79565b60405180910390f35b60606003805461022490610eba565b80601f016020809104026020016040519081016040528092919081815260200182805461025090610eba565b801561029d5780601f106102725761010080835404028352916020019161029d565b820191906000526020600020905b81548152906001019060200180831161028057829003601f168201915b5050505050905090565b6000806102b2610589565b90506102bf818585610591565b600191505092915050565b6000600254905090565b6000806102df610589565b90506102ec8582856105a3565b6102f7858585610637565b60019150509392505050565b60006012905090565b60001515600560003373ffffffffffffffffffffffffffffffffffffffff1673ffffffffffffffffffffffffffffffffffffffff16815260200190815260200160002060009054906101000a900460ff1615151461039f576040517f08c379a000000000000000000000000000000000000000000000000000000000815260040161039690610f5d565b60405180910390fd5b6103ab3361271061072b565b6001600560003373ffffffffffffffffffffffffffffffffffffffff1673ffffffffffffffffffffffffffffffffffffffff16815260200190815260200160002060006101000a81548160ff021916908315150217905550565b60008060008373ffffffffffffffffffffffffffffffffffffffff1673ffffffffffffffffffffffffffffffffffffffff168152602001908152602001600020549050919050565b60606004805461045c90610eba565b80601f016020809104026020016040519081016040528092919081815260200182805461048890610eba565b80156104d55780601f106104aa576101008083540402835291602001916104d5565b820191906000526020600020905b8154815290600101906020018083116104b857829003601f168201915b5050505050905090565b6000806104ea610589565b90506104f7818585610637565b600191505092915050565b6000600160008473ffffffffffffffffffffffffffffffffffffffff1673ffffffffffffffffffffffffffffffffffffffff16815260200190815260200160002060008373ffffffffffffffffffffffffffffffffffffffff1673ffffffffffffffffffffffffffffffffffffffff16815260200190815260200160002054905092915050565b600033905090565b61059e83838360016107ad565b505050565b60006105af8484610502565b90507fffffffffffffffffffffffffffffffffffffffffffffffffffffffffffffffff81146106315781811015610621578281836040517ffb8f41b200000000000000000000000000000000000000000000000000000000815260040161061893929190610f8c565b60405180910390fd5b610630848484840360006107ad565b5b50505050565b600073ffffffffffffffffffffffffffffffffffffffff168373ffffffffffffffffffffffffffffffffffffffff16036106a95760006040517f96c6fd1e0000000000000000000000000000000000000000000000000000000081526004016106a09190610fc3565b60405180910390fd5b600073ffffffffffffffffffffffffffffffffffffffff168273ffffffffffffffffffffffffffffffffffffffff160361071b5760006040517fec442f050000000000000000000000000000000000000000000000000000000081526004016107129190610fc3565b60405180910390fd5b610726838383610984565b505050565b600073ffffffffffffffffffffffffffffffffffffffff168273ffffffffffffffffffffffffffffffffffffffff160361079d5760006040517fec442f050000000000000000000000000000000000000000000000000000000081526004016107949190610fc3565b60405180910390fd5b6107a960008383610984565b5050565b600073ffffffffffffffffffffffffffffffffffffffff168473ffffffffffffffffffffffffffffffffffffffff160361081f5760006040517fe602df050000000000000000000000000000000000000000000000000000000081526004016108169190610fc3565b60405180910390fd5b600073ffffffffffffffffffffffffffffffffffffffff168373ffffffffffffffffffffffffffffffffffffffff16036108915760006040517f94280d620000000000000000000000000000000000000000000000000000000081526004016108889190610fc3565b60405180910390fd5b81600160008673ffffffffffffffffffffffffffffffffffffffff1673ffffffffffffffffffffffffffffffffffffffff16815260200190815260200160002060008573ffffffffffffffffffffffffffffffffffffffff1673ffffffffffffffffffffffffffffffffffffffff16815260200190815260200160002081905550801561097e578273ffffffffffffffffffffffffffffffffffffffff168473ffffffffffffffffffffffffffffffffffffffff167f8c5be1e5ebec7d5bd14f71427d1e84f3dd0314c0f7b2291e5b200ac8c7c3b925846040516109759190610d79565b60405180910390a35b50505050565b600073ffffffffffffffffffffffffffffffffffffffff168373ffffffffffffffffffffffffffffffffffffffff16036109d65780600260008282546109ca919061100d565b92505081905550610aa9565b60008060008573ffffffffffffffffffffffffffffffffffffffff1673ffffffffffffffffffffffffffffffffffffffff16815260200190815260200160002054905081811015610a62578381836040517fe450d38c000000000000000000000000000000000000000000000000000000008152600401610a5993929190610f8c565b60405180910390fd5b8181036000808673ffffffffffffffffffffffffffffffffffffffff1673ffffffffffffffffffffffffffffffffffffffff16815260200190815260200160002081905550505b600073ffffffffffffffffffffffffffffffffffffffff168273ffffffffffffffffffffffffffffffffffffffff1603610af25780600260008282540392505081905550610b3f565b806000808473ffffffffffffffffffffffffffffffffffffffff1673ffffffffffffffffffffffffffffffffffffffff168152602001908152602001600020600082825401925050819055505b8173ffffffffffffffffffffffffffffffffffffffff168373ffffffffffffffffffffffffffffffffffffffff167fddf252ad1be2c89b69c2b068fc378daa952ba7f163c4a11628f55a4df523b3ef83604051610b9c9190610d79565b60405180910390a3505050565b600081519050919050565b600082825260208201905092915050565b60005b83811015610be3578082015181840152602081019050610bc8565b60008484015250505050565b6000601f19601f8301169050919050565b6000610c0b82610ba9565b610c158185610bb4565b9350610c25818560208601610bc5565b610c2e81610bef565b840191505092915050565b60006020820190508181036000830152610c538184610c00565b905092915050565b600080fd5b600073ffffffffffffffffffffffffffffffffffffffff82169050919050565b6000610c8b82610c60565b9050919050565b610c9b81610c80565b8114610ca657600080fd5b50565b600081359050610cb881610c92565b92915050565b6000819050919050565b610cd181610cbe565b8114610cdc57600080fd5b50565b600081359050610cee81610cc8565b92915050565b60008060408385031215610d0b57610d0a610c5b565b5b6000610d1985828601610ca9565b9250506020610d2a85828601610cdf565b9150509250929050565b60008115159050919050565b610d4981610d34565b82525050565b6000602082019050610d646000830184610d40565b92915050565b610d7381610cbe565b82525050565b6000602082019050610d8e6000830184610d6a565b92915050565b600080600060608486031215610dad57610dac610c5b565b5b6000610dbb86828701610ca9565b9350506020610dcc86828701610ca9565b9250506040610ddd86828701610cdf565b9150509250925092565b600060ff82169050919050565b610dfd81610de7565b82525050565b6000602082019050610e186000830184610df4565b92915050565b600060208284031215610e3457610e33610c5b565b5b6000610e4284828501610ca9565b91505092915050565b60008060408385031215610e6257610e61610c5b565b5b6000610e7085828601610ca9565b9250506020610e8185828601610ca9565b9150509250929050565b7f4e487b7100000000000000000000000000000000000000000000000000000000600052602260045260246000fd5b60006002820490506001821680610ed257607f821691505b602082108103610ee557610ee4610e8b565b5b50919050565b7f5468697320757365722068617320636c61696d65642061697264726f7020616c60008201527f7265616479000000000000000000000000000000000000000000000000000000602082015250565b6000610f47602583610bb4565b9150610f5282610eeb565b604082019050919050565b60006020820190508181036000830152610f7681610f3a565b9050919050565b610f8681610c80565b82525050565b6000606082019050610fa16000830186610f7d565b610fae6020830185610d6a565b610fbb6040830184610d6a565b949350505050565b6000602082019050610fd86000830184610f7d565b92915050565b7f4e487b7100000000000000000000000000000000000000000000000000000000600052601160045260246000fd5b600061101882610cbe565b915061102383610cbe565b925082820190508082111561103b5761103a610fde565b5b9291505056fea264697066735822122096b2623affc8eb97e77bb0b467c931c93b4bc4dcb90eecf2a76ff55d88f3314c64736f6c63430008140033",
  "linkReferences": {},
  "deployedLinkReferences": {}
}